:100000000C94EF050C9436060C9436060C943606C8
:100010000C9436060C9436060C9436060C94360670
:100020000C9436060C9436060C94F5220C94C723D7
:100030000C94C8190C9436060C9436060C943606AB
:100040000C9436060C9436060C9436060C94360640
:100050000C9436060C94151A0C9436060C9436063D
:100060000C9436060C9436060C9436060C94360620
:100070000C9436060C9436060C9436060C94360610
:100080000C9436060C9436060C9436060C94360600
:100090000C9436060C9436060C9436060C943606F0
:1000A0000C9436060C9436060C9436060C0F0C0F86
:1000B0003E0F3E0F8B0FA90F01110111EB0F8010A6
:1000C00091109110F11001110111FA109611961171
:1000D000A811A8119F11A811A811A8119611961185
:1000E000A411A811A811A41134245B2453255B2466
:1000F0005325A724CA2453252125302529001E0075
:100100001F002000210022002300240025002600DB
:1001100027002D002E002A004C002B0014001A008E
:100120000800150017001C0018000C001200130036
:100130002F00300028004A00390004001600070094
:1001400009000A000B000D000E000F003300340000
:10015000320000004E00E10064001D001B0006009C
:100160001900050011001000360037003800E500C6
:1001700052004D00E000E300E200000000002C000F
:10018000000000000000E6000151E40050005100B2
:100190004F0035003A003B003C003D003E003F0070
:1001A000400041004200430044004500A8000251C5
:1001B0000100010001000100010001000100010037
:1001C00001000100010001000100AE00010001007A
:1001D0000100010001000100010001000100010017
:1001E000010001000100010000004B0001000100BE
:1001F00001000100010001000100010001000100F7
:10020000010001000100A90001000100010001003E
:1002100000000000010000000000000001000100DB
:100220000100AC00AA00AB000100010001000100C8
:1002300001000100010001000100010001000100B6
:100240000100005C0100010001000100010001004B
:100250000100010001000100010001000100010096
:100260000100010001000100010001000100010086
:100270000100010001000100010001000100000077
:100280000100010001000100010001000100010066
:100290000100010001000100010001000100010056
:1002A000010001000100000000000100000000004A
:1002B0000000010001000100010001000100010037
:1002C0000100010001000100010001000100010026
:1002D0000100010001000100010001000100010016
:1002E0000100010001000100010001000100010006
:1002F00001000100010001000100010001000100F6
:1003000001000100010001000100010001000100E5
:1003100001000100000001000100010001000100D6
:1003200001000100010001000100010001000100C5
:1003300001000100010001000100010000000000B7
:1003400001000000000000000100010001000100A8
:100350000100010001000100010001000100010095
:100360000100010001000100010001000100010085
:100370000100010001000100010001000100010075
:100380000100010001000100010001000100010065
:100390000100010001000100010001000100010055
:1003A0000100010001000100010000000100010046
:1003B0000100010001000100010001000100010035
:1003C0000100010001000100010001000100010025
:1003D000010000000000010000000000000001001A
:1003E0000100010001000100010001000100010005
:1003F00001000100010001000100010001000100F5
:1004000001000100010001000100010001000100E4
:1004100001000100010001000100010001000100D4
:1004200001000100010001000100010001000100C4
:1004300001000100010001000100010001000100B4
:1004400000000100010001000100010001000100A5
:100450000100010001000100010001000100010094
:100460000100010001000100000000000100000087
:100470000000000001000100010001000100010076
:100480000100010001000100010001000100010064
:100490000100010001000100010001000100010054
:1004A0000100010001000100010001000100010044
:1004B0000100010001000100010001000100010034
:1004C0000100010001000100010001000100010024
:1004D0000100010001000000010001000100010015
:1004E0000100010001000100010001000100010004
:1004F00001000100010001000100010001000000F5
:1005000000000100000000000000010001000100E7
:1005100001000100010001000100010001000100D3
:1005200001000100010001000100010001000100C3
:1005300001000100010001000100010001000100B3
:1005400001000100010001000100010001000100A3
:100550000100010001000100010001000100010093
:100560000100010001000100010001000000010084
:100570000100010001000100010001000100010073
:100580000100010001000100010001000100010063
:100590000100010000000000010000000000000058
:1005A0000100010001000100010001000100010043
:1005B0000100010001000100010001000100010033
:1005C0000100010001000100010001000100010023
:1005D0000100010001000100010001000100010013
:1005E0000100010001000100010001000100010003
:1005F00001000100010001000100010001000100F3
:1006000001000000010001000100010001000100E3
:1006100001000100010001000100010001000100D2
:1006200001000100010001000100000000000100C4
:1006300000000000000001000100010001000100B5
:1006400001000100010001000100010001000100A2
:100650000100010001000100010001000100010092
:100660000100010001000100010001000100010082
:100670000100010001000100010001000100010072
:100680000100010001000100010001000100010062
:100690000100010001000100000001000100010053
:1006A0000100010001000100010001000100010042
:1006B0000100010001000100010001000100010032
:1006C0000000000001000000000000000100010027
:1006D0000100010001000100010001000100010012
:1006E0000100010001000100010001000100010002
:1006F00001000100010001000100010001000100F2
:1007000001000100010001000100010001000100E1
:1007100001000100010001000100010001000100D1
:1007200001000100010001000100010001000000C2
:1007300001000100010001000100010001000100B1
:1007400001000100010001000100010001000100A1
:100750000100010001000000000001000000000095
:100760000000010001000100010001000100010082
:100770000100010001000100010001000100010071
:100780000100010001000100010001000100010061
:100790000100010001000100010001000100010051
:1007A0000100010001000100010001000100010041
:1007B0000100010001000100010001000100010031
:1007C0000100010000000100010001000100010022
:1007D0000100010001000100010001000100010011
:1007E0000100010001000100010001000000000003
:1007F00001000000000000000100010001000100F4
:1008000001000100010001000100010001000100E0
:1008100001000100010001000100010001000100D0
:1008200001000100010001000100010001000100C0
:1008300001000100010001000100010001000100B0
:1008400001000100010001000100010001000100A0
:100850000100010001000100010000000100010091
:100860000100010001000100010001000100010080
:100870000100010001000100010001000100010070
:100880000100000000000100000000000000010065
:100890000100010001000100010001000100010050
:1008A0000100010001000100010001000100010040
:1008B0000100010001000100010001000100010030
:1008C0000100010001000100010001000100010020
:1008D0000100010001000100010001000100010010
:1008E0000100010001000100010001000100010000
:1008F00000000100010001000100010001000100F1
:1009000001000100010001000100010001000100DF
:1009100001000100010001000000000001000000D2
:1009200000000000010001000100010001000100C1
:1009300001000100010001000100010001000100AF
:10094000010001000100010001000100010001009F
:10095000010001000100010001000100010001008F
:10096000010001000100010001000100010001007F
:10097000010001000100010001000100010001006F
:100980000100010001000000010001000100010060
:10099000010001000100010001000100010001004F
:1009A0000100010001000100010001000100000040
:1009B0000000010000000000000001000100010033
:1009C000010001000100010001000100010001001F
:1009D000010001000100010001000100010001000F
:1009E00001000100010001000100010001000100FF
:1009F00001000100010001000100010001000100EF
:100A000001000100010001000100010001000100DE
:100A100001000100010001000100010000000100CF
:100A200001000100010001000100010001000100BE
:100A300001000100010001000100010001000100AE
:100A400001000100000000000100000000000000A3
:100A50000100010001000100010001000403300059
:100A6000000014035400450043004C0041004400C2
:100A70004F00360035000000160371006D006B005A
:100A80006200750069006C0064006500720000007F
:100A90000403090409023B00020100A0FA09040052
:100AA000000103010100092111010001224000079A
:100AB00005810308000A0904010001030000000980
:100AC000211101000122BC000705820320000A1247
:100AD00001100100000008EDFE606001000102034A
:100AE0000105010902A10185020901A100050919F9
:100AF00001290515002501950575018102950175EE
:100B00000381010501093009311581257F950275A1
:100B100008810609381581257F950175088106052C
:100B20000C0A38021581257F950175088106C0C021
:100B300005010980A101850319012AB700150126C5
:100B4000B700950175108100C0050C0901A1018550
:100B50000419012AA002150126A002950175108131
:100B600000C005010906A1018505050719E029E76F
:100B7000150025019508750181020507190029EF67
:100B80001500250195F07501810205081901290557
:100B9000950575019102950175039101C005010943
:100BA00006A101050719E029E7150025019508753B
:100BB0000181029501750881010507190029FF15BA
:100BC0000026FF0095067508810005081901290512
:100BD000950575019102950175039101C0001124DD
:100BE0001FBECFEFDAE0DEBFCDBF04B603FE27C0E5
:100BF0008091980290919902A0919A02B0919B02E3
:100C00008730904BA740B04BD1F4109298021092CD
:100C1000990210929A0210929B0214BE84B7877FA9
:100C200084BF0FB6F894A895809160008861809386
:100C30006000109260000FBEE0E0F8E3099511E05B
:100C4000A0E0B1E0E2EFFBE402C005900D92AC3809
:100C5000B107D9F722E0ACE8B1E001C01D92A83994
:100C6000B207E1F70E9424200C94F7250C940000B1
:100C700080E090E008950895089581E00895089532
:100C800081E008950C943D0608950C9444061F934A
:100C9000CF93DF9300D000D01F92CDB7DEB749834A
:100CA0005A836B833091A40189819A81311114C0D8
:100CB000662359F0222349F00E94CF16182F682F7F
:100CC00089819A810E94781603C00E94A316182F6A
:100CD00069817A81812F04C00E94CF1669817A814F
:100CE0000F900F900F900F900F90DF91CF911F9169
:100CF0000C94F506FC01262F40815181628173819D
:100D000084810C944706CF93DF93EC0160E00E944E
:100D10007A06BE01DF91CF910C9445060E9401181E
:100D2000811102C00E94AB180C940F090C940D099C
:100D30000C943F0681E008950C949A06CF93C82F37
:100D40000E9498068C2F0E949C06CF9108950895CA
:100D50000E9484110E94A7062FEF84E39CE021509B
:100D600080409040E1F700C000000C943B1A0F93C4
:100D70001F93CF93DF93EC0161E00E947A068C0110
:100D8000BE010E944206882349F1BE01C8010E94AB
:100D90009F0A882319F1BE01C8010E94E00A882336
:100DA000E9F0BE01C8010E940B0C8823B9F08A81CA
:100DB000882369F001158CE5180731F00E3D1C45BC
:100DC00031F40E94AB180AC00E94A80607C0CE01E9
:100DD000DF91CF911F910F910C94400680E0DF913D
:100DE000CF911F910F91089508952BE4829FC00128
:100DF0001124FC012FE0729FE00DF11D1124E60F7C
:100E0000F11DEE0FFF1FE450FF4F8591949108955F
:100E1000880F991FFC01E45AF54F8591949108952C
:100E2000CF93DF930E94F5060E942808EC018115FC
:100E3000904508F041C0C11580E4D80708F0D1C042
:100E4000C83ED10510F5C03ED10508F0FDC0C83A36
:100E5000D10578F4C53AD10508F0A2C0C130D1055A
:100E600009F4F2C008F4EEC0C430D10508F0ECC0BB
:100E7000E9C0CF3BD10508F49BC0C03CD10508F4C4
:100E8000E1C0CE01805C91099EC0C11590E2D907F6
:100E900058F4C11521E0D20708F0D6C0C03FD105F3
:100EA00008F4D0C0D065D0C0C11580E3D80708F0E1
:100EB0008EC0CE019F7087C0C11595E5D90708F097
:100EC00043C0C11524E5D20708F0A2C0C11582E5D0
:100ED000D80708F5C11591E5D90708F085C0CE01FE
:100EE00074E0969587957A95E1F783709C2F9370BF
:100EF00021E030E002C0220F331F9A95E2F73C68F0
:100F0000382BCF70C695C69580E2C89FE0011124AA
:100F1000C22BD32B99C09E01237033278C2F86952B
:100F20008695C115D34508F064C0C1E0D0E002C089
:100F3000CC0FDD1F2A95E2F720E2829FC001112429
:100F4000C82BD92BDC6880C0C11529E5D207A0F4D5
:100F5000C11588E5D80708F060C0C11596E5D90726
:100F600008F070C08C2F0E94BC088F71C82FD0E091
:100F7000DC2FCC27D06268C0C1152AE5D20708F45F
:100F800051C0CE0190568115904208F05BC08D2F64
:100F90008F710E94BC08DD27D0628F71D82B54C09E
:100FA000C55AD0E0CD5BDE4FC881D0E0D0644CC0E4
:100FB000C85AD0E0CC0FDD1FCB5EDE4F0990D88140
:100FC000C02DD46441C00E940807EC013DC0CE0191
:100FD0009927D3FF03C0EC01D86C36C0EC01D06C6C
:100FE00033C0DF70D06A30C0DC2FCC27C16FD06A2D
:100FF0002BC0C1E0D0E002C0CC0FDD1F2A95E2F784
:1010000020E2829FC0011124C82BD92BDA681CC0B2
:10101000DC2FCC27C46FD06A17C0DC2FCC27C06F61
:10102000D06A12C08C2F8F700E94BC0894E0D695B5
:10103000C7959A95E1F7CF70D0E0DC2FCC27D06927
:10104000C82B02C0C0E0D0E0CE01DF91CF9108955F
:101050008238910569F1B0F48133910509F46DC0CE
:1010600048F48932910509F463C08A32910509F484
:1010700069C008958533910509F455C089339105F8
:10108000B9F00895833E910569F138F4803E9105E9
:10109000B1F0823E910509F10895863E9105A9F1CE
:1010A000873E9105B9F1843E910509F064C023C0E3
:1010B0002091890220FD4FC021FD4DC008958091EF
:1010C000890280FD44C080918A0280FF44C08091E3
:1010D000890284FD42C083EE4DC08091890282FF67
:1010E00038C0F5CF8091890282FD33C080918A0299
:1010F00080FD31C0ECCF80918A0281FF32C08091A7
:10110000890284FD2AC087EE35C08091890283FF61
:1011100026C0F5CF8091890283FD21C080918A028B
:1011200081FD1FC0ECCF8091890285FD1CC01DC0D0
:101130008091890285FD19C016C08091890286FDC3
:1011400016C017C08091890286FD13C010C089E3C4
:1011500011C082EE0FC080EE0DC080E00BC086EEA5
:1011600009C084EE07C089E205C085E303C08AE2B6
:1011700001C081E390E008959091890292FF0DC033
:10118000282F2871283019F4877F846006C0282F03
:101190002471243011F48B7F886093FF0DC0282FB9
:1011A0002871283119F4877E846106C0282F2471A4
:1011B000243111F48B7E886120918A0220FF0DC0BA
:1011C000382F3871383019F4877F816006C0382F86
:1011D0003171313011F48E7F886021FF0DC0282FCE
:1011E0002871283119F4877E816106C0282F21716A
:1011F000213111F48E7E886194FD877E0895E82F59
:10120000F0E0EE0FFF1FE758FD4F808191810895B8
:10121000089580EA8A95F1F708950C943C060C94A1
:101220003B06CF93DF93A5E5B1E04AE551E061E0ED
:1012300070E08D91E82FE295EF70F0E021A18F70C2
:10124000EB0102C0CC0FDD1F8A95E2F7CE019C2F87
:101250009095922391A392A1892B82A34A175B07B1
:1012600041F7A6E4B1E045E551E061E070E08D9121
:10127000E82FE295EF70F0E021A18F70EB0102C042
:10128000CC0FDD1F8A95E2F7CE019C2F909592231B
:1012900091A392A1892B82A34A175B0741F7EFE63E
:1012A000F2E0A9E7B2E089E792E0119211921D9273
:1012B0001D928E179F07C9F785E00E94F009DF9104
:1012C000CF910C948E066F927F928F929F92AF92E5
:1012D000BF92CF92DF92EF92FF920F931F93CF9323
:1012E000DF9385E5C82E81E0D82E0FE612E099E75E
:1012F000A92E92E0B92E712C88248394912CF601AA
:1013000081916F01C82FC295CF70D0E099A18F70E5
:10131000740101C0EE0C8A95EAF7892F8E2989A302
:101320008AA16E2C609486218AA30E940909E6E4B2
:10133000F1E040E050E020E030E06191A62FA2957E
:10134000AF70B0E090968C9190E06F7002C0959570
:1013500087956A95E2F780FD08C0C401042E02C09B
:10136000880F991F0A94E2F702C080E090E0282BD2
:10137000392B4F5F5F4F4F305105F9F689A1682235
:1013800069A28AA1E82AEAA2F8018081918128173E
:10139000390721F03183208381E001C080E0782A81
:1013A0000E5F1F4FA016B10609F0A9CF272D45E00B
:1013B00069E772E08FE692E00E94F1090E949606CA
:1013C000872DDF91CF911F910F91FF90EF90DF90CC
:1013D000CF90BF90AF909F908F907F906F90089527
:1013E0000895FF920F931F93CF93DF93F82E092F49
:1013F000162FD72FC42F222349F081E080938E012E
:101400000E94FA1990938D0180938C0180918E0136
:101410008823D9F080918C0190918D010E94061A49
:10142000069798F0EF2DF02FA12FBD2F80E090E0D0
:101430004C2F50E08417950734F4219131912D936E
:101440003D930196F7CF10928E01DF91CF911F91BE
:101450000F91FF9008950F931F93CF93DF93C62FA3
:10146000D42F122FFC0182818823C9F0609391014F
:101470000E94FA199093900180938F0180E28C0F63
:10148000883008F057C0C77081E001C0880FCA9546
:10149000EAF7DF91CF911F910F910C94CC0E8091C0
:1014A0009101681330C080918F01909190010E944A
:1014B000061A883C910538F500E20D0FCD17B9F0FA
:1014C00080E28C0F883040F4C77081E001C0880F43
:1014D000CA95EAF70E94D30E083028F581E09D2FC7
:1014E000977001C0880F9A95EAF70E94CC0E812F61
:1014F0000E94B90E0830F0F4D77081E001C0880F67
:10150000DA95EAF70AC080E28C0F883098F4C77049
:1015100081E001C0880FCA95EAF7DF91CF911F9152
:101520000F910C94D30E812FDF91CF911F910F91CA
:101530000C94B90EDF91CF911F910F9108959C01EA
:10154000CB01233F4CE53407F9F078F4283DFCE566
:101550003F07B9F0293D4CE5340711F1273D3C45E3
:1015600031F526E241EE61EE1EC0253FFCE53F0766
:1015700099F070F0263F3C45D1F427E245EE66EE47
:1015800012C027E245EE0EC026E241EE60EE0BC02F
:1015900027E245EE64EE07C026E241EE62EE03C0AC
:1015A00028E241E065EE0E942B0A80E00895FC01EC
:1015B0008281882319F010929101089581E00895A5
:1015C000CF93DF93EC01FB018281882309F41FC1D3
:1015D000C230FCE5DF0708F41BC1C6319CE5D90722
:1015E00038F09E012A5F3C452930310508F010C1D2
:1015F0000E941E1890938A0280938902C031ECE504
:10160000DE0709F4C3C008F041C0C8308CE5D80734
:1016100009F49AC0F0F4C430ECE5DE0709F487C0A1
:1016200068F4C2308CE5D80709F477C0C330DC45D4
:1016300009F0E3C080918902826076C0C630ECE593
:10164000DE0709F46EC008F07BC0809189028860D3
:101650006BC0CC308CE5D80709F485C068F4CA307B
:10166000ECE5DE0709F474C008F079C00E9484112B
:1016700080918902806858C0CE308CE5D80709F483
:1016800076C008F07FC0809189028BC0CB3FECE52B
:10169000DE0709F44FC018F5C3318CE5D80709F40B
:1016A0007DC078F4C131ECE5DE0709F473C0C231C6
:1016B000DC4509F0A2C00E948411809189028F77D5
:1016C00033C0C5318CE5D80709F472C008F486C070
:1016D000CA3FDC4509F091C080918A023EC0CF3FED
:1016E000FCE5DF0709F45FC058F4CD3F9CE5D9075E
:1016F00009F444C008F43FC080918A0282602DC082
:10170000C130FDE5DF0709F475C008F45DC0C230E3
:10171000DD4509F072C080E06EC080918902816071
:1017200003C08091890280618093890266C08091A4
:10173000890211C080918A02826080938A025DC012
:10174000809189028062F0CF809189028064ECCF21
:101750008091890288608460E7CF8160EECF8091BC
:1017600089028E7FE1CF809189028D7FDDCF8091CC
:101770008902877FD9CF80918A0218C080918A021E
:101780008D7FDBCF809189028F7ECECF80918902C1
:101790008F7DCACF809189028F7BC6CF80918902CD
:1017A000877F8B7FC1CF80918A028D7F8E7FC5CF4F
:1017B0008091890282FB222720F991E0922790FBF9
:1017C00082F990FB83F9B0CF80918A02982F90958F
:1017D00091708E7F892B90FB81F9AFCF0E9484118D
:1017E0008091890287FB222720F991E0922790FBC4
:1017F00087F99ACF81E00E94AD188091890290917B
:101800008A020E942F180E94841180E001C081E0AA
:10181000DF91CF910895CF93DF9386319C4541F5B9
:10182000EB010E945017982F8A812091000130917E
:101830000101882379F09A7A81E009F480E08093AD
:101840009201911102C069E201C065E3C9010E94E1
:1018500048190AC080919201811102C069E201C059
:1018600065E3C9010E9453190E949E1780E001C0E0
:1018700081E0DF91CF910895909398018093970133
:101880000895E0919701F0919801309721F001902F
:10189000F081E02D099480E00895E0919701F091A6
:1018A0009801309799F020911401222359F020914A
:1018B000890227FF07C0DC012C9111962C93119708
:1018C00025E02C930280F381E02D09940895E091A6
:1018D0009701F0919801309739F022E0DC012C93C8
:1018E0000480F581E02D09940895209195013091AF
:1018F00096012817390771F090939601809395010E
:10190000E0919701F0919801309721F00680F781DE
:10191000E02D0994089520919301309194012817A6
:10192000390771F09093940180939301E0919701AE
:10193000F0919801309721F00084F185E02D099411
:10194000089585B7806885BF85B7806885BF08958D
:1019500008950C94A80C0C94A90C0C94A80C0C944D
:10196000A80C0E94A10C0E94AD0C0C94AB0C81E061
:1019700008950C94B70C0E94F1190E9411090E945D
:10198000AB1A0C94AF0C7F928F929F92AF92BF9242
:10199000CF92DF92EF92FF920F931F93CF93DF933B
:1019A000CDB7DEB72A970FB6F894DEBF0FBECDBF16
:1019B0000E9463090E94B90C811111C08FEF8983C5
:1019C0008A831B820E94FA198160782F9D838C8301
:1019D00049815A816B818D810E94730D4FC04AE904
:1019E000A42E41E0B42E00E010E0702E802F0E9463
:1019F000FF086C01F501819091905F01882699267E
:101A00008114910431F40F5F1F4F0530110569F700
:101A1000D5CF80913C0281FD0E94080980E0EE2430
:101A2000E394F12C94012E213F21232B09F18E8385
:101A30007F82CE20DF2081E0CD2809F480E08887F6
:101A40000E94FA198160782F9A8789874E815F8179
:101A500068858A850E94730D000F111FF801E656F4
:101A6000FE4F80819181E826F926F182E08206C04E
:101A70008F5FEE0CFF1C8F30A9F6C5CF0E945F1D53
:101A80000E94410C909199018917C9F00E94410C64
:101A9000809399012A960FB6F894DEBF0FBECDBF92
:101AA000DF91CF911F910F91FF90EF90DF90CF903A
:101AB000BF90AF909F908F907F900C949E062A9637
:101AC0000FB6F894DEBF0FBECDBFDF91CF911F914F
:101AD0000F91FF90EF90DF90CF90BF90AF909F90CD
:101AE0008F907F900895CF93DF93CDB7DEB72B977C
:101AF0000FB6F894DEBF0FBECDBF4F8358876987FE
:101B00007A878B87DE01119686E0FD0111928A9516
:101B1000E9F785E0FE01379601900D928A95E1F78D
:101B200049815A816B817C818D819E810E943D1407
:101B30002B960FB6F894DEBF0FBECDBFDF91CF91CD
:101B40000895FC01808191810E9411170895CF931F
:101B5000882309F4A4C0C82F8238C1F40E94410C24
:101B600081FD9DC069E380910001909101010E9477
:101B700048190E949E172FEF81EE94E0215080407B
:101B80009040E1F700C0000069E319C0833801F517
:101B90000E94410C80FD83C063E58091000190911B
:101BA00001010E9448190E949E172FEF81EE94E0D8
:101BB000215080409040E1F700C0000063E5809133
:101BC0000001909101010E945319CF910C949E172E
:101BD0008438C1F40E94410C82FD61C067E48091A9
:101BE0000001909101010E9448190E949E172FEF59
:101BF00081EE94E0215080409040E1F700C0000069
:101C000067E4DDCF8CEF8C0F813AD0F46C2F80919C
:101C10000001909101010E94C818882349F06C2F9F
:101C200080910001909101010E9453190E949E171A
:101C30006C2F80910001909101010E944819C5CF3D
:101C400080E28C0F883048F4C77081E001C0880FB3
:101C5000CA95EAF70E945317B8CFEBE5EC0FE330D3
:101C600040F4F0E0E857FE4F808190E0CF910C9473
:101C7000750CE8E5EC0FE73150F4F0E0EE0FFF1FD4
:101C8000E65AFE4F80819181CF910C948B0CC03F1E
:101C900030F08C2F0E94671CCF910C94541DCF9173
:101CA0000895882309F464C0823879F40E94410CB5
:101CB00081FF5EC069E380910001909101010E9463
:101CC00048190E949E1769E310C08338B1F40E943E
:101CD000410C80FF4DC063E58091000190910101AE
:101CE0000E9448190E949E1763E58091000190911F
:101CF00001010E9453190C949E17843879F40E94B4
:101D0000410C82FF35C067E4809100019091010190
:101D10000E9448190E949E1767E4E7CF9CEF980F36
:101D2000913A10F4682FE1CF90E2980F983050F478
:101D3000877091E001C0990F8A95EAF7892F0E9478
:101D40005917D9CF9BE5980F933020F480E090E0AD
:101D50000C94750C98E5980F973120F480E090E092
:101D60000C948B0C803F20F00E94CF1C0C94541DCF
:101D70000895CF93C82F0E94A70DC93349F42FEFC0
:101D800087EE93E0215080409040E1F700C00000D2
:101D90008C2FCF910C94510E882321F00E94531761
:101DA0000C949E170895882321F00E9459170C94D3
:101DB0009E170895CF92DF92EF92FF920F931F9399
:101DC000CF93DF937C01062FC72FFC01158112955D
:101DD0001F70D281D1110E9470170E944917882369
:101DE00079F0DD2369F080E2800F883048F082E0EE
:101DF0000E94E8170E94491791E0D82ED92601C009
:101E0000D12CCC2EC2948FE0C8228C2D90E0FC0106
:101E1000EA5AFF4F0C949B258C2F807FCF7088232C
:101E200011F0C295C07FDD2399F0CC2309F4C4C121
:101E300080E2800F883010F0011104C08C2F0E94C6
:101E4000531703C08C2F0E9463170E949E17B4C1C2
:101E5000802F0E94510ECC2309F4D3C180E2800F61
:101E6000883010F0011104C08C2F0E94591703C054
:101E70008C2F0E9469170E949E17C3C18C2F807FF0
:101E8000CF70803211F0C295C07F002319F001306D
:101E9000C9F022C0DD2371F0112341F0113031F47B
:101EA0000E9483178C2B0E948B17ABC10E94831753
:101EB0008C2B1DC0112319F0113009F4A2C10E940E
:101EC000941725C0DD2321F0163008F09AC10EC00A
:101ED000153008F096C11BC0DD2361F0112331F0ED
:101EE000F701858180FF68C18F7085838C2F0E94E8
:101EF000CC0E87C1112359F0093309F06EC1FFEFF1
:101F000027EE83E0F15020408040E1F764C18C2F40
:101F10000E94D30E76C18C2F86958695837019F01A
:101F2000813061F06EC1DD2321F0802F9C2F9370F2
:101F300002C080E090E00E94750C6BC1DD2321F0AF
:101F4000802F9C2F937002C080E090E00E948B0C49
:101F500060C1DD23F9F0053F51F0063F71F0043F09
:101F6000A9F4809183029091840281600BC08091DA
:101F7000830290918402826005C0809183029091D7
:101F8000840284609093840280938302802F0E9455
:101F9000671C1EC0053F51F0063F71F0043FA9F4D5
:101FA00080918302909184028E7F0BC08091830286
:101FB000909184028D7F05C080918302909184026C
:101FC0008B7F9093840280938302802F0E94CF1C8A
:101FD0000E94541D1EC18C2F837009F045C0D11181
:101FE00014C1402F429546954770440F440F602F0F
:101FF0006F70862F90E0A0E0B0E0042E04C0880F40
:10200000991FAA1FBB1F0A94D2F704FF10C00FE04C
:1020100010E020E030E004C0000F111F221F331F2A
:102020004A95D2F7009510952095309503C000E0B1
:1020300010E09801C695C695C370BC01CD01602B18
:10204000712B822B932BC23049F058F4C13019F018
:102050000E948E15DAC00E947C15D7C00E94A01580
:10206000D4C00E947A15D1C0DD2319F08C2F817065
:1020700001C08695882309F4C8C0402F4295469533
:102080004770440F440F602F6F70862F90E0A0E0E0
:10209000B0E0042E04C0880F991FAA1FBB1F0A942A
:1020A000D2F704FF10C00FE010E020E030E004C0E1
:1020B000000F111F221F331F4A95D2F7009510956C
:1020C0002095309503C000E010E09801C695C695B4
:1020D000C370BC01CD01602B712B822B932BC230BE
:1020E00049F058F4C13019F00E9453168EC00E9476
:1020F00041168BC00E94651688C00E94B41585C029
:10210000CF70DD2339F08C2F0E94DA15802F0E94CA
:10211000CC0E7BC0802F0E94D30E8C2F0E94FB150B
:1021200074C0023F01F128F4003F41F0013FA1F0EB
:102130003FC0033FF9F0043F39F13AC0DD2341F0DD
:10214000153008F05EC08C2F8F710E94201659C088
:10215000163008F056C0F7CFDD2339F08C2F8F7181
:102160000E94DA154EC0DD23C9F38C2F8F710E94B7
:10217000FB1547C0DD2329F08C2F8F710E94C515F8
:1021800040C00E94C0153DC0DD2349F0CF718C2FA7
:102190000E94DA1563E08C2F0E94D31732C081E0D1
:1021A0000E94E817123068F182E00E94E81729C007
:1021B000DD2331F0112391F2802F0E94A70D21C061
:1021C000112399F2093349F49FEFE7EEF3E09150C0
:1021D000E040F040E1F700C00000802F0E94510E67
:1021E00010C04C2F4F70602FC7010E9438060E940C
:1021F000EB140FC04C2F4F70602FC7010E94F406E4
:1022000008C088EF8C0D843020F40E94410C0E949D
:102210009E06DD20C9F00E94451780FD15C0F7011C
:1022200012820E943F170E94DA15C7010E944511D1
:102230000E943F17DF91CF911F910F91FF90EF9078
:10224000DF90CF900C94FB15DF91CF911F910F91F0
:10225000FF90EF90DF90CF9008950F931F93CF934F
:10226000DF93EC01688179818A810E941C178C01BF
:102270000E9477160E946815B801CE010E94DA0EFE
:10228000DF91CF911F910F910895CF93DF93FC01C0
:102290009081818123813481232B31F08F3F31F470
:1022A00081E09F3F19F403C081E001C080E080FD20
:1022B0000EC0EF01CF010E94B706882341F0CE0186
:1022C0000E942D11CE01DF91CF910C948306DF91F6
:1022D000CF9108950E9470170E9480170E949E1748
:1022E0000E947E1E0E94541D80E090E00E94750CAA
:1022F00080E090E00C948B0C8091000190910101A2
:102300000E945E190C946A110E9460170C947C1153
:10231000E92FE295EF704E2F50E0FA013297EE3040
:10232000F105B0F4EA59FF4F0C949B25803F91F0E2
:1023300018F4883E68F40EC0843F51F40BC0883E08
:1023400048F0813F29F406C093FB882780F908955F
:1023500080E0089581E008950E9411170E9488117D
:102360000895CF93DF9300D000D01F92CDB7DEB792
:102370000F900F900F900F900F90DF91CF910895D5
:10238000CF93DF9300D000D000D0CDB7DEB7269634
:102390000FB6F894DEBF0FBECDBFDF91CF91089589
:1023A0001F93CF93DF93C091A50116E08091A60102
:1023B000C81799F0D0E01C9FF0011D9FF00D11246B
:1023C000E955FE4F408151816281738184819581FD
:1023D0000E94C0112196C770E9CFDF91CF911F9164
:1023E00008954091D7015091D8016091D901709121
:1023F000DA018091DB019091DC010C94C0110F9304
:102400001F93CF93DF938091DC0182958F7009F049
:102410005DC08091D901882309F458C08091A5013D
:102420001091A6016091D7017091D801C091DA0195
:10243000D091DB0191E06F3F09F090E0292F06E099
:10244000811709F443C0209721F07F3F21F030E04D
:1024500003C031E001C0322F90E030FD34C0089F4E
:10246000F001099FF00D1124DF01A955BE4F11960F
:102470003C911197371327C03C91361324C0129614
:102480003C91129731111FC013964D915C91149796
:102490004C1B5D0B483C5105B0F48091DC018F7002
:1024A00080618093DC01E455FE4F80818F708061F4
:1024B000808387ED91E00E944511DF91CF911F91BC
:1024C0000F910C94D01101968770BACFDF91CF9104
:1024D0001F910F9108959F92AF92BF92CF92DF927A
:1024E000EF92FF920F931F93CF93DF93CDB7DEB799
:1024F00061970FB6F894DEBF0FBECDBF8C0185E0AB
:10250000F801DE011D9601900D928A95E1F7F80120
:1025100040815181E2809091D7016091D801209152
:10252000DA013091DB012115310531F06F3F31F4D3
:1025300081E09F3F19F403C081E001C080E0F82FE3
:10254000F1709F2E80FD46C1F801A380B48087ED15
:10255000C82E81E0D82EF090D901F501E21BF30BD3
:10256000FF2009F4DFC08091DC01E83CF10508F0B0
:102570009BC0282F207F09F052C0561313C0491367
:1025800011C0FE2CE1100EC08F7080618093DC01C1
:102590000E94F111C6010E9445118091DC01F801F1
:1025A000858358C1AB2831F05F3F31F481E04F3F64
:1025B00019F403C081E001C080E080FD03C081E028
:1025C0008E2502C080E090E0F82FF170FF2E80FF92
:1025D0001CC08091A5012091A60136E0821709F464
:1025E00017C190E0389FF001399FF00D1124E95593
:1025F000FE4F6181561306C06081461303C062819D
:10260000E61203C001968770E9CFFE2CEE2009F494
:1026100021C18091DC0181608093DC015AC0561396
:1026200006C0491304C0E11002C0F8019FC04D87E5
:102630005E878D859E850E94AC11882379F1EE20FE
:1026400069F12091DC01822F82958F7090E00297D2
:1026500074F08091D7019091D80198878F83198663
:10266000BB86AA862C87CE0107960E94451186E07C
:10267000F801A7EDB1E001900D928A95E1F70E9473
:10268000FF110E94F1110DC0561729F14D875E8789
:102690008D859E850E94AC1181112CC0C8010E94BD
:1026A0004511FF24F394D6C0282F207F69F77A2D97
:1026B000B98AA88A6E2D89890E94B11187ED91E0AF
:1026C0000E94451186E0F60111928A95E9F70E9471
:1026D000F111F12CBFC04913D9CFE110D7CFF801C8
:1026E0008583C8010E94451186E0F60111928A9502
:1026F000E9F7B0C0EE2091F22091DC01822F8295A3
:102700008F7090E002970CF4B2CF8091D701909136
:10271000D8019A8389831B82BD82AC822E83CE012D
:102720000196A3CFE83CF10508F047C0FE2CEE204F
:1027300009F4B4CF561330C049132EC02091DC01E8
:1027400020FD21C0822F82958F70482F50E04115C7
:102750005105C9F0F80125834F30510541F08F5FD5
:10276000982F9295907F822F8F70892B8583C80137
:102770000E94451186E0F801A7EDB1E001900D92AD
:102780008A95E1F742C086E0F801A7EDB1E001903B
:102790000D928A95E1F75EC04D875E878D859E8597
:1027A0000E94AC11811163CF8091DC018160809324
:1027B000DC01C8010E9445114DC07A2DB98AA88A52
:1027C0006E2D89890E94B11186E0F60111928A95D9
:1027D000E9F71BC0EE2009F461CF4D875E878D8538
:1027E0009E850E94AC11F82E882309F457CF86E00D
:1027F000F801A7EDB1E001900D928A95E1F787ED20
:1028000091E00E94A10D0E94FF110E94F11122C0CF
:102810004D875E878D859E850E941117292F2295F1
:102820002F70223028F49F7039F0811105C00BC041
:10283000243028F49F7049F4805E883020F0C8016D
:102840000E9445119F2CF92C05C0F8019581907FBD
:1028500099F7F9CF8F2D61960FB6F894DEBF0FBEB2
:10286000CDBFDF91CF911F910F91FF90EF90DF903F
:10287000CF90BF90AF909F9008951F93CF93DF9319
:10288000CDB7DEB72C970FB6F894DEBF0FBECDBF25
:102890004F83588769877A878B879C87CE010796F5
:1028A0000E946B128823D1F09F8188852A853B8501
:1028B000232B31F08F3F31F481E09F3F19F403C0A7
:1028C00081E001C080E080FD47C04F815885698567
:1028D0007A858B859C850E94C0113EC086E0FE01F2
:1028E0003796DE01119601900D928A95E1F7FF81EE
:1028F000E8856A857B856115710531F0EF3F31F41C
:1029000081E0FF3F19F403C081E001C080E080FD59
:1029100023C02091A60130E0C90101968770992754
:102920004091A50150E084179507F1F1F983EA83FE
:102930007D836C8396E0929FD001939FB00D11240C
:10294000A955BE4FFE01319601900D929A95E1F77F
:102950008093A6010E94D01116E08091A50190916C
:10296000A601891771F1189FC001112489559E4F46
:102970000E946B12882329F1E091A5011E9FF001AE
:102980001124E955FE4F4081518162817381848118
:1029900095810E94C0118091A50190E001968770F9
:1029A00099278093A501D9CF0E9484111092A60186
:1029B0001092A501E7EDF1E086E0DF011D928A9516
:1029C000E9F72C960FB6F894DEBF0FBECDBFDF91AE
:1029D000CF911F910895EF92FF920F931F93CF9382
:1029E000DF938C01892B09F46CC0F12CEE24E39465
:1029F000E8012196F8018491843740F4843008F08E
:102A000051C0813081F0823019F15BC0853709F403
:102A100044C0A8F19CE7980F903708F052C08F7718
:102A20000E94510E41C00E5F1F4FFE01849190E243
:102A3000980F983050F48770FE2D01C0FF0F8A95D3
:102A4000EAF78F2F0E94731714C00E94A70D2DC0A4
:102A50000E5F1F4FFE01849190E2980F983060F452
:102A60008770FE2D01C0FF0F8A95EAF78F2F0E9415
:102A700079170E949E1719C00E94510E16C00E5F52
:102A80001F4FFE01C491CC2381F08FE99FE0019795
:102A9000F1F700C00000C150F6CF0E5F1F4FFE01DE
:102AA000F49003C00E94A70D8E018F2D882309F496
:102AB0009FCFEFE9FFE03197F1F700C000008150B0
:102AC000F5CFDF91CF911F910F91FF90EF90089577
:102AD000089508950C9469150C946A150E946C155C
:102AE0006093130270931402809315029093160260
:102AF0000C946A110C946E150F931F93009113029E
:102B0000109114022091150230911602602B712B46
:102B1000822B932B1F910F910C946E150F931F9383
:102B200000911302109114022091150230911602A7
:102B300060237123822393231F910F910C946E15B0
:102B40000F931F930091130210911402209115020C
:102B50003091160260277127822793271F910F91CA
:102B60000C946E150C9469150E94B21560930F02B7
:102B70007093100280931102909312020C946A11C8
:102B800060E070E0CB010C94B4150F931F9341E00B
:102B900050E060E070E08A019B0104C0000F111F4B
:102BA000221F331F8A95D2F7C901B8011F910F91D7
:102BB0000C94B4150F931F9341E050E060E070E077
:102BC00004C0440F551F661F771F8A95D2F7809166
:102BD0000F0290911002A0911102B09112028A018D
:102BE0009B01082B192B2A2B3B2BC901B8011F91E4
:102BF0000F910C94B4150F931F9341E050E060E0E7
:102C000070E004C0440F551F661F771F8A95D2F7E6
:102C1000409550956095709580910F0290911002AB
:102C2000A0911102B09112028A019B01082319237D
:102C30002A233B23C901B8011F910F910C94B415AD
:102C40000F931F9341E050E060E070E004C0440F38
:102C5000551F661F771F8A95D2F780910F029091BA
:102C60001002A0911102B09112028A019B01082763
:102C700019272A273B27C901B8011F910F910C94EE
:102C8000B4150F931F9300910F0210911002209121
:102C9000110230911202602B712B822B932B1F910A
:102CA0000F910C94B4150F931F9300910F02109184
:102CB00010022091110230911202602371238223AD
:102CC00093231F910F910C94B4150F931F930091B0
:102CD0000F02109110022091110230911202602710
:102CE0007127822793271F910F910C94B415089593
:102CF0002FE0929F800D1124E82FE695E695E6954A
:102D0000877051E001C0550F8A95EAF785E0E89F8A
:102D1000F0011124E352FE4F20E030E070E04081EA
:102D2000CB01022E02C0969587950A94E2F7817036
:102D3000819584278523842781932F5F3F4F2530FA
:102D4000310569F708952FE0929F800D1124682FB7
:102D5000669566956695982F977085E0689FB00197
:102D6000112440E050E080E0FB01E40FF51FE35246
:102D7000FE4F208130E0092E02C0369527950A9437
:102D8000E2F721703327042E01C0220F0A94EAF7DC
:102D9000822B4F5F5F4F4530510531F70895BF9249
:102DA000CF92DF92EF92FF920F931F93CF93DF9317
:102DB0008C01C0900F02D0901002E0901102F090B0
:102DC00012028091130290911402A0911502B09109
:102DD0001602C82AD92AEA2AFB2ACFE1D0E0D70175
:102DE000C6010C2E04C0B695A795979587950A94B1
:102DF000D2F780FD04C0219790F7B12C07C0BC2EFC
:102E0000B8018C2F0E9410070197A9F38B2DDF9139
:102E1000CF911F910F91FF90EF90DF90CF90BF90D7
:102E20000895CF93DF93EC010E94CF16BE010E945C
:102E30001007DF91CF9108951F93CF93DF93EB019C
:102E40009091A401992321F0CB010E94111713C086
:102E5000882349F0CB010E94CF16182F682FCE018E
:102E60000E94781604C0CB010E94A316182FBE0141
:102E7000812F0E941007DF91CF911F9108958091BB
:102E8000170285958595859508958091170287701D
:102E9000089590911702977081E009F480E00895F9
:102EA00080913B02089590913B02892B80933B02D5
:102EB0000895809590913B02892380933B02089569
:102EC00010923B02089590913A02892B80933A0226
:102ED0000895809590913A02892380933A0208954B
:102EE00010923A02089590913902892B8093390209
:102EF000089580959091390289238093390208952D
:102F000010923902089580911802089508950C9442
:102F100086170C94871790911802981721F08093C8
:102F200018020C948917089580911802882329F0BB
:102F30001092180280E00C9489170895E091000126
:102F4000F091010180913B028083E0910001F091BA
:102F50000101908180913A02892B8083E0910001E8
:102F6000F0910101908180913902892B80838091B9
:102F70001802882381F0E0910001F0910101908115
:102F8000892B808380910001909101010E94B218E9
:102F900081110E94941780910001909101010C947D
:102FA0004D0C0C94861798E0899F90011124262BD4
:102FB000209317020E94DA15809117028595859556
:102FC00085950C94D1171092170280E00C94D117BC
:102FD000209117028095822380931702982F977073
:102FE00079F430E0482F082E000C550B24173507D4
:102FF00039F08595859585950E94FB150C94E3170E
:10300000089580E090E00E94BD2521E08C3E9E4F17
:1030100009F020E0822F089582E090E00C94B5251D
:10302000682F82E090E00C94C32583E090E00C943C
:10303000B525682F83E090E00C94C325CF9384E0FE
:1030400090E00E94B525C82F81E290E00E94B5254E
:103050002C2F30E0A901582BCA01CF910895CF93AE
:10306000C92F682F84E090E00E94C3256C2F81E275
:1030700090E0CF910C94C325AB01BC018FE090E0B0
:103080000C94D525AB01BC0183E190E00C94D525CF
:1030900060E070E0CB010C94421860E070E0CB017E
:1030A0000E943C180C9448186CEE7EEF80E090E093
:1030B0000E94E12560E082E090E00E94C32560E08C
:1030C00083E090E00E94C325109213021092140234
:1030D000109215021092160260E084E090E00E94C7
:1030E000C32560E081E290E00E94C32560E085E0B6
:1030F00090E00E94C32560E086E090E00E94C32536
:103100006FEF87E090E00E94C32540E050E0BA01F5
:1031100088E090E00E94D52560E08DE090E00E947C
:10312000C32540E050E0BA0188E190E00E94D52537
:1031300060E087E190E00E94C32540E050E0BA01E2
:103140008CE190E00E94D52560E080E290E00E9452
:10315000C3250C944D180C945418682F8EE090E001
:103160000C94C325FC01329680911401882331F020
:103170008091890287FF02C09EE101C096E080E055
:10318000915028F021912223D9F38F5FF9CF089530
:10319000662351F1209114012223E9F02091890244
:1031A00027FF19C0462F4695469546954E31E0F4C7
:1031B000677021E030E002C0220F331F6A95E2F70A
:1031C000FC01E40FF11D828190E02823392381E086
:1031D000232B69F409C0FC013296089621916217ED
:1031E00029F0E817F907D1F780E0089581E0089504
:1031F0009C01FC0132969FEF80E04191461789F0D7
:103200009F3F19F4411101C0982F8F5F8630A9F7B5
:103210009F3F39F0F901E90FF11D97FDFA9562839F
:10322000089508959C012A5F3F4FFC014281461397
:1032300001C01282019682179307B9F70895262FCD
:103240002695269526952E3168F4FC01E20FF11D96
:10325000677021E030E001C0220F6A95EAF78281B1
:10326000282B22830895262F2695269526952E31E4
:1032700070F4FC01E20FF11D677021E030E001C045
:10328000220F6A95EAF720958281282322830895E8
:1032900020911401222329F02091890227FD0C940A
:1032A0001F190C94F81820911401222329F0209161
:1032B000890227FD0C9433190C94121920911401E2
:1032C000FC013296222331F08091890287FF02C0EF
:1032D0008EE101C086E0DF011D928A95E9F708952D
:1032E00008950C9470190C947019CF930E9473195F
:1032F0000E9463090E947119C0E08C2F0E94FF0890
:10330000892B29F4CF5FC530C1F780E001C081E08F
:10331000CF9108950C9470190C948A190E948C19FD
:1033200080918F02843049F110923D0220E488E1BF
:1033300090E00FB6F894A895809360000FBE20939C
:10334000600080E00E949E060E948C1983B7817FF6
:10335000846083BF83B7816083BF7894889583B787
:103360008E7F83BF0FB6F894A89580916000886126
:1033700080936000109260000FBE08950C94701945
:103380000E9484110E94410C0E949E060C94BE195A
:103390001F920F920FB60F9211248F939F93AF93AA
:1033A000BF9380913D02811113C08091850290915D
:1033B0008602A0918702B09188024196A11DB11D9D
:1033C0008093850290938602A0938702B09388022F
:1033D000BF91AF919F918F910F900FBE0F901F9053
:1033E000189582E084BD93E095BD9AEF97BD8093D8
:1033F0006E0008952FB7F89480918502909186020F
:10340000A0918702B09188022FBF08959C014FB709
:10341000F8948091850290918602A0918702B091E4
:1034200088024FBF821B930B089578941F920F92CE
:103430000FB60F9211248F939F93AF93BF938091F8
:10344000850290918602A0918702B0918802019630
:10345000A11DB11D8093850290938602A0938702DF
:10346000B0938802BF91AF919F918F910F900FBE43
:103470000F901F90189581E08093E00080E2809388
:10348000D8001092C9008FE19EE40197F1F700C0C7
:10349000000087E090EBDC01809398029093990202
:1034A000A0939A02B0939B029CE088E10FB6F89437
:1034B000A895809360000FBE90936000FFCFAF92FD
:1034C000BF92CF92DF92EF92FF920F931F93CF9311
:1034D000C0E0CC24C394D12CE82EF12C8C2F0E9478
:1034E000FF085C0100E010E0C601002E02C0880F5A
:1034F000991F0A94E2F78A219B21892B31F40F5FEF
:103500001F4F0F30110581F70AC0602F7C2F80E01C
:103510000E94F506E816F90691F781E004C0CF5F36
:10352000C530E1F680E0CF911F910F91FF90EF90B1
:10353000DF90CF90BF90AF900895CF93C82F8CE2CB
:103540000E945F1A882321F08C2FCF910C945F1A70
:1035500080E0CF910895CF930E940118811102C09D
:103560000E94AB18C5E6C15049F00E9463098FE381
:103570009CE90197F1F700C00000F5CF89E20E94B5
:103580009D1A811120C18AE20E949D1A81110E9418
:10359000AB1885E00E949D1A81110E943B1A0E947F
:1035A0000C1880933C0287E00E949D1A8823A9F1A1
:1035B0008BE10E949D1A882351F080913C0281FB8F
:1035C000222720F991E0922790FB81F90EC08EE02E
:1035D0000E949D1A882361F080913C0282FB222781
:1035E00020F991E0922790FB82F980933C0215C06C
:1035F00080E10E949D1A90913C02882341F093FB48
:10360000222720F981E0822780FB93F904C0892FCB
:10361000809580FB90F990933C0280913C020E943F
:1036200010180E941E1890938A028093890280EEDF
:103630000E949D1A882341F080918902982F9095CD
:1036400090FB80F98093890289E30E949D1A882368
:1036500059F08091890281FB222720F991E092277D
:1036600090FB81F98093890282EE0E949D1A882343
:1036700059F08091890282FB222720F991E092275C
:1036800090FB82F98093890286EE0E949D1A88231E
:1036900059F08091890283FB222720F991E092273B
:1036A00090FB83F98093890283EE0E949D1A882300
:1036B00059F08091890284FB222720F991E092271A
:1036C00090FB84F98093890285E30E949D1A8823E8
:1036D00059F08091890285FB222720F991E09227F9
:1036E00090FB85F98093890281E30E949D1A8823CB
:1036F00059F08091890286FB222720F991E09227D8
:1037000090FB86F98093890281E10E949D1A8823AB
:1037100059F08091890287FB222720F991E09227B6
:1037200090FB87F9809389028091890290918A02A7
:103730000E942F1887E20E949D1AC82F8EE10E94D6
:103740009D1A8111C2608FE10E949D1A8111C4608F
:1037500080E20E949D1A8111C86081E20E949D1A38
:103760008111C06182E20E949D1A8111C06283E2D0
:103770000E949D1A8111C06484E20E949D1A8823D0
:1037800011F0C06802C0CC2329F08C2F0E941918B8
:103790006C2F03C00E941518682F70E080E090E045
:1037A0000E947A158FE00E949D1A882319F081E00B
:1037B0000E94AD1885E10E949D1A882321F080E0C7
:1037C000CF910C94AD18CF9108958091450280FF60
:1037D0000BC06091070185E0689FB00111247595C9
:1037E0006795759567952BC081FF09C060910701AA
:1037F00085E0689FB00111247595679520C082FF10
:1038000007C06091070185E0689FB001112417C0CF
:10381000909144029923D1F060910601961788F7A0
:103820002091070185E0289F90011124929FA0011B
:10383000939F500D112470E0CA010E9487256038C3
:10384000710540F46115710519F406C065E070E07A
:10385000862F08958FE7089581E0089580914502AD
:1038600080FF08C06091030170E0759567957595BC
:10387000679521C081FF06C06091030170E07595D6
:10388000679519C082FF04C06091030170E010C009
:1038900090914402992399F0609102019617A0F744
:1038A00080910301899FC001112470E00E94872547
:1038B0006038710540F46115710519F406C061E0C6
:1038C00070E0862F08958FE7089581E00895803F86
:1038D00021F40E94E51B819504C0813F29F40E94D8
:1038E000E51B809349020895823F21F40E94E51B65
:1038F000819504C0833F29F40E94E51B8093480210
:103900000895893F19F40E942E1C05C08A3F31F4A6
:103910000E942E1C819580934A0208958B3F21F4CA
:103920000E942E1C819504C08C3F29F40E942E1CFD
:1039300080934B020895843F21F480914702816077
:1039400017C0853F21F480914702826011C0863FF5
:1039500021F48091470284600BC0873F21F480915D
:103960004702886005C0883F31F48091470280613A
:103970008093470208958D3F21F480914502816034
:103980000BC08E3F21F480914502826005C08F3FBD
:1039900029F4809145028460809345020895803F18
:1039A00039F48091490287FF6CC01092490269C0C6
:1039B000813F29F4809149021816BCF362C09091AE
:1039C0004802823F29F497FF5CC01092480259C018
:1039D000833F19F41916CCF354C0893F41F4809108
:1039E0004A0218160CF04DC010924A024AC08A3F93
:1039F00029F480914A0287FF44C0F6CF8B3F39F407
:103A000080914B0287FF3DC010924B023AC08C3F21
:103A100029F480914B021816BCF333C0843F21F483
:103A2000809147028E7F17C0853F21F48091470225
:103A30008D7F11C0863F21F4809147028B7F0BC0A0
:103A4000873F21F480914702877F05C0883F31F48A
:103A5000809147028F7E8093470213C08D3F21F4EF
:103A6000809145028E7F0BC08E3F21F480914502EC
:103A70008D7F05C08F3F29F4809145028B7F809315
:103A800045028091480281110EC080914902811146
:103A90000AC080914A02811106C080914B028111B7
:103AA00002C010924402089586E492E00E94670CDE
:103AB0000E94FA1990934302809342020895CF9393
:103AC000DF9300D000D000D0CDB7DEB786E0E6E4CB
:103AD000F2E0DE01119601900D928A95E1F7809156
:103AE0004802811105C080914902882309F47AC0F7
:103AF00080914002909141020E94061AAC0190917F
:103B00004402992339F02091080130E02417350749
:103B100058F068C0209109018AE0289F9001112483
:103B20002417350718F05EC09F3F19F09F5F9093F0
:103B3000440210924A0210924B02809148021816D9
:103B400024F40E94E51B809348028091480287FF7D
:103B500005C00E94E51B819580934802809149022F
:103B6000181624F40E94E51B8093490280914902B3
:103B700087FF05C00E94E51B819580934902309123
:103B800048023323E1F0209149022223C1F045EBA2
:103B90003403C0011124992319F09093480203C003
:103BA00081E08093480235EB2303C001112499235F
:103BB00019F09093490203C081E0809349020E946A
:103BC000541D809142029091430290934102809350
:103BD000400286E0FE013196A6E4B2E001900D922B
:103BE0008A95E1F780914A02811105C080914B02CC
:103BF000882309F47AC080913E0290913F020E948E
:103C0000061AAC0190914402992339F020910401E5
:103C100030E02417350758F068C0209105018AE08C
:103C2000289F900111242417350718F05EC09F3F8C
:103C300019F09F5F9093440210924802109249023B
:103C400080914A02181624F40E942E1C80934A0286
:103C500080914A0287FF05C00E942E1C81958093A7
:103C60004A0280914B02181624F40E942E1C809365
:103C70004B0280914B0287FF05C00E942E1C81954C
:103C800080934B0230914A023323E1F020914B02A2
:103C90002223C1F045EB3403C0011124992319F00C
:103CA00090934A0203C081E080934A0235EB2303DC
:103CB000C0011124992319F090934B0203C081E0B5
:103CC00080934B020E94541D8091420290914302C6
:103CD00090933F0280933E0286E0FE013196A6E477
:103CE000B2E001900D928A95E1F726960FB6F8940E
:103CF000DEBF0FBECDBFDF91CF910895E6E4F2E0C5
:103D000086E0DF011D928A95E9F710924402109235
:103D10004502089580916C020895CF93DF9300D0FF
:103D20001F92CDB7DEB790918F02943019F5898339
:103D30007B836A8382E08093E9008FEF9091E800B3
:103D4000815095FD06C095ED9A95F1F7000081111F
:103D5000F5CF8091E80085FF0DC040E050E063E0C2
:103D600070E0CE0101960E94E9208091E8008E77F4
:103D70008093E8000F900F900F90DF91CF910895FE
:103D8000CF93DF93EC010E94CC20823011F084307D
:103D900031F4BE0184E0DF91CF910C948D1EDF9150
:103DA000CF910895BC0183E00C948D1ECF93DF93D7
:103DB000EC010E94CC20823011F08430F9F482E0D2
:103DC0008093E9008FEF9091E800815095FD06C047
:103DD00095ED9A95F1F700008111F5CF8091E800FB
:103DE00085FF0CC040E050E066E070E0CE010E942C
:103DF000E9208091E8008E778093E800DF91CF91F1
:103E00000895CF93DF93EC010E94CC20823011F013
:103E10008430D9F580911401882339F0809189028A
:103E200087FF03C060E282E002C068E081E0809327
:103E3000E9008FEF9091E800815095FD06C095ED67
:103E40009A95F1F700008111F5CF8091E80085FF88
:103E50001CC080911401811105C040E050E068E071
:103E600070E003C070E040E050E0CE010E94E92025
:103E70008091E8008E778093E80080E2FE01ACE458
:103E8000B2E001900D928A95E1F7DF91CF9108950C
:103E900080918E02811109C00E947A220E94D7224D
:103EA0008091E20084608093E200089510928E0277
:103EB0000895089508950C94C01942E061EC81E0E2
:103EC0000E94F32142E261EC82E00C94F3218091A4
:103ED0009102833009F460C030F4813071F0823097
:103EE00009F499C008958A3009F485C08B3009F42B
:103EF0006BC0893009F0A7C020C080919002813A40
:103F000009F0A1C08091E800877F8093E80080914C
:103F1000940290919502892B21F460E28CE492E066
:103F200003C060E080E090E070E00E943421809166
:103F3000E8008B778093E8000895809190028132A9
:103F400009F081C08091940290919502029708F047
:103F50007AC08091E800877F8093E8008091E80034
:103F600082FD05C080918F028111F8CF6CC0209135
:103F7000F3008091F20090E0922B029729F4809157
:103F8000F1008B7F813021F48091F10080936C02ED
:103F90008091E8008B7753C080919002813A09F0BC
:103FA00052C08091940290919502892B09F04BC0E8
:103FB0008091E800877F8093E8008091E80080FF8F
:103FC000FCCF8091140136C0809190028132D9F5E6
:103FD0008091940290919502892BA9F58091E80037
:103FE000877F8093E8000E9428228091920280932C
:103FF00014010C94841180919002813221F58091FA
:10400000E800877F8093E8000E9428228091930235
:1040100080936D02089580919002813AA1F480917D
:10402000E800877F8093E8008091E80080FFFCCF64
:1040300080916D028093F1008091E8008E778093EB
:10404000E8000C942822089584B7877F84BF0FB6B8
:10405000F894A89580916000886180936000109228
:1040600060000FBE90E080E80FB6F8948093610086
:10407000909361000FBE0E94B10C0E947A220E94B0
:10408000D7228091E20084608093E20078940E94BD
:104090006C250E94BB0C8AE091E00E943C0C809150
:1040A0008F02853069F40E948E1980918D028823D9
:1040B000B1F30E947519882391F30E94D320EFCFAA
:1040C0000E94C30CECCF0C946520292F332723309A
:1040D0003105C9F060F42130310581F0223031051D
:1040E00009F04AC08BE390E024E93AE049C021326C
:1040F000310511F12232310579F13EC082E190E0C3
:104100002FEC3AE03DC099278130910561F040F0F5
:104110008230910559F0039779F5ECE5FAE008C093
:10412000E0E9FAE005C0E8E7FAE002C0E2E6FAE01A
:10413000849190E09F0124C06115710541F06130C8
:104140007105D1F489E090E02FEB3AE019C089E0E5
:1041500090E026EA3AE014C06115710541F0613043
:10416000710551F48CEB90E021EE3AE009C080E457
:1041700090E02DE93BE004C080E090E020E030E0FA
:10418000FA0131832083089580918F02843011F0E9
:1041900081E0089582E0089580916E02811102C04D
:1041A0000C94C420089580E189BD82E189BD09B4E1
:1041B00000FEFDCF8091D8008F7D8093D800809144
:1041C000E00082608093E0008091E00081FDFCCF00
:1041D0000895CF92DF92EF92FF920F931F93CF93A8
:1041E000DF93EC018B017A010E944722811133C0D9
:1041F000E114F10439F0F70180819181081B190B5A
:10420000C80FD91FC12CD12C0115110519F18091AE
:10421000E80085FD16C08091E8008E778093E80065
:10422000E114F10449F0F70180819181C80ED91E93
:10423000D182C08285E00FC00E944722882321F3EB
:104240000AC089918093F10001501109FFEFCF1A44
:10425000DF0ADACF80E0DF91CF911F910F91FF90BD
:10426000EF90DF90CF9008952091960230919702C1
:104270002617370748F06115710539F42091E800D9
:104280002E772093E80001C0B901FC0120E0611500
:10429000710579F180918F028823F1F18530F1F178
:1042A0008091E80083FD3CC08091E80082FD2EC033
:1042B0008091E80080FFEBCF2091F3008091F20025
:1042C00090E0922B6115710551F08830910538F41A
:1042D00021912093F100615071090196F3CF21E003
:1042E000089709F020E08091E8008E778093E8003D
:1042F000CECF2111CFCF0AC080918F02882361F0E9
:10430000853061F08091E80083FD0AC08091E8006B
:1043100082FFF2CF80E0089582E0089583E008955F
:1043200081E0089520919602309197022617370771
:1043300048F06115710539F42091E8002E7720933B
:10434000E80001C0B901FC0120E06115710591F19F
:1043500080918F02882309F440C0853009F43FC062
:104360008091E80083FD3DC08091E80082FD2FC070
:104370008091E80080FFE9CF2091F3008091F20066
:1043800090E0922B6115710559F08830910540F449
:1043900024912093F1003196615071090196F2CF7A
:1043A00021E0089709F020E08091E8008E77809363
:1043B000E800CBCF2111CCCF0AC080918F02882397
:1043C00061F0853061F08091E80083FD0AC0809142
:1043D000E80082FFF2CF80E0089582E0089583E054
:1043E000089581E00895982F973068F59093E9003B
:1043F000981739F07091EC002091ED005091F00089
:1044000003C0242F762F50E021FD02C09F5FECCF28
:104410003091EB003E7F3093EB003091ED003D7F1B
:104420003093ED003091EB0031603093EB007093EE
:10443000EC002093ED005093F0002091EE0027FD5A
:10444000E5CF80E008958F708093E90081E00895C2
:104450008091900287FF11C08091E80082FD05C025
:1044600080918F028111F8CF11C08091E8008B7785
:104470000BC080918F02882349F08091E80080FF73
:10448000F8CF8091E8008E778093E800089520911E
:10449000E4003091E50095E64091EC00842F8170B6
:1044A00040FF23C08091E80080FD1DC080918F02F5
:1044B000882399F0853099F08091EB0085FD11C03B
:1044C0004091E4005091E5002417350729F39150FD
:1044D00011F09A01E1CF84E0089582E0089583E02D
:1044E000089581E0089580E008954091E80042FF3A
:1044F000DDCF08950E94E8220E94F022E0EEF0E075
:10450000808181608083E8EDF0E080818F77808317
:1045100019BCA7EDB0E08C918E7F8C9380818F7E4B
:10452000808310928E0208950F931F93CF93DF9391
:104530000E94E8220E94F022C8EDD0E088818F77A7
:10454000888388818068888388818F7D888319BC6F
:1045500010928F0210928B0210928D0210928C0298
:1045600000EE10E0F80180818B7F8083888181607C
:10457000888342E060E080E00E94F321E1EEF0E019
:1045800080818E7F8083E2EEF0E080818160808395
:10459000808188608083F80180818E7F808388811C
:1045A00080618883DF91CF911F910F910895E8ED8D
:1045B000F0E080818F7E8083E7EDF0E08081816094
:1045C000808384E082BF81E080938E020C949422E9
:1045D000E8EDF0E080818E7F80831092E200089504
:1045E0001092DA001092E10008951F920F920FB618
:1045F0000F9211242F933F934F935F936F937F9369
:104600008F939F93AF93BF93EF93FF938091E100BC
:1046100082FF0BC08091E20082FF07C08091E10021
:104620008B7F8093E1000E946B258091DA0080FFF0
:104630001FC08091D80080FF1BC08091DA008E7F60
:104640008093DA008091D90080FF0DC080E189BDA0
:1046500082E189BD09B400FEFDCF81E080938F0225
:104660000E94481F05C019BC10928F020E94561F5D
:104670008091E10080FF19C08091E20080FF15C0A9
:104680008091E2008E7F8093E2008091E200806161
:104690008093E2008091D80080628093D80019BC9A
:1046A00085E080938F020E945A1F8091E10084FF71
:1046B00030C08091E20084FF2CC080E189BD82E19E
:1046C00089BD09B400FEFDCF8091D8008F7D809315
:1046D000D8008091E1008F7E8093E1008091E2001C
:1046E0008F7E8093E2008091E20081608093E200FF
:1046F00080918B02882311F084E007C08091E30051
:1047000087FD02C081E001C083E080938F020E9498
:104710005B1F8091E10083FF29C08091E20083FF4D
:1047200025C08091E100877F8093E10082E0809343
:104730008F0210928B028091E1008E7F8093E100C6
:104740008091E2008E7F8093E2008091E2008061A0
:104750008093E20042E060E080E00E94F3218091DB
:10476000F00088608093F0000E94591FFF91EF9144
:10477000BF91AF919F918F917F916F915F914F9179
:104780003F912F910F900FBE0F901F9018951F9281
:104790000F920FB60F9211242F933F934F935F9375
:1047A0006F937F938F939F93AF93BF93CF93DF9339
:1047B000EF93FF93C091E900CF708091EC00D82F68
:1047C000D17080FDD0E81092E9008091F000877FE1
:1047D0008093F00078940E940B241092E90080915D
:1047E000F00088608093F000CD2BCF70C093E9007B
:1047F000FF91EF91DF91CF91BF91AF919F918F91F9
:104800007F916F915F914F913F912F910F900FBECC
:104810000F901F9018951F93CF93DF93CDB7DEB7FE
:10482000AA970FB6F894DEBF0FBECDBFE0E9F2E065
:104830008091F100819322E0E839F207C9F70E94E4
:10484000671F8091E80083FF2EC1809190029091B4
:104850009102492F50E04A30510508F024C1FA0175
:10486000EC58FF4F0C949B25803821F0823809F0DA
:104870001AC108C080918C0290918D02992389F011
:1048800082600FC0809194028F70873008F00BC156
:104890008093E9008091EB0085FB882780F91092D6
:1048A000E9009091E800977F9093E8008093F100F1
:1048B0001092F100D1C0282F2D7F09F0F4C0882379
:1048C00019F0823061F0EFC080919202813009F0DE
:1048D000EAC0933009F080E080938D022EC0809171
:1048E000920281112AC0809194028F702FEF280FBD
:1048F000263008F0D8C08093E9002091EB0020FF1B
:104900001CC0933021F48091EB00806214C0909120
:10491000EB0090619093EB0021E030E0A90102C030
:10492000440F551F8A95E2F74093EA001092EA007F
:104930008091EB0088608093EB001092E9008091F9
:10494000E800877F8093E8000E942822ACC0811194
:10495000AAC0109192021F778091E3008078812B8A
:104960008093E3008091E800877F8093E8000E94B5
:1049700028228091E80080FFFCCF8091E3008068CE
:104980008093E300111102C082E001C083E08093B4
:104990008F0289C08058823008F085C080919202D1
:1049A000909193028C3D53E0950779F583E08A83DB
:1049B0008AE289834FB7F894DE01139620E03EE047
:1049C00051E2E32FF0E050935700E49120FF03C041
:1049D000E295EF703F5FEF708E2F90E0EA3010F0BD
:1049E000C79601C0C0968D939D932F5F243149F7E0
:1049F0004FBF8091E800877F8093E8006AE270E013
:104A0000CE0101960E94342116C0609194027091EB
:104A10009502AE014F5F5F4F0E946320BC01892B5E
:104A200009F441C09091E800977F9093E800898154
:104A30009A810E9492218091E8008B778093E80010
:104A400032C0803881F58091E800877F8093E8004C
:104A500080918B028093F1008091E8008E7772CF75
:104A6000811121C08091920290919302992702971F
:104A7000D4F48091E800877F8093E80080919202CF
:104A800080938B020E94282280918B02811106C0A4
:104A90008091E30087FD02C081E001C084E0809343
:104AA0008F020E945D1F8091E80083FF0AC0809101
:104AB000E800877F8093E8008091EB00806280931C
:104AC000EB00AA960FB6F894DEBF0FBECDBFDF9104
:104AD000CF911F9108950895CF9380918F028823DD
:104AE000A1F0C091E900CF709091EC00892F817006
:104AF00090FD80E8C82B1092E9008091E80083FDCA
:104B00000E940B24CF70C093E900CF91089597FBCA
:104B1000072E16F4009407D077FD09D00E94A12536
:104B200007FC05D03EF4909581959F4F08957095B0
:104B300061957F4F0895EE0FFF1F0590F491E02DD2
:104B40000994AA1BBB1B51E107C0AA1FBB1FA617D4
:104B5000B70710F0A61BB70B881F991F5A95A9F726
:104B600080959095BC01CD010895F999FECF92BD35
:104B700081BDF89A992780B50895A8E1B0E042E098
:104B800050E00C94E925262FF999FECF92BD81BD06
:104B9000F89A019700B4021639F01FBA20BD0FB67B
:104BA000F894FA9AF99A0FBE08950396272F0E9457
:104BB000C4250E94C325252F0E94C425242F0C94B0
:104BC000C4250196272F0E94C4250C94C325DC011F
:104BD000CB01FC01F999FECF06C0F2BDE1BDF89A08
:104BE000319600B40D9241505040B8F70895F894B2
:024BF000FFCFF5
:104BF20019022808641E140A321E8A1E011FD61EBC
:104C0200D21EC01E01E200E900EA00B500B600B7FC
:104C120000CD008301CC008A01920194012102237C
:104C22000224022502260227022A02B300B4006FE0
:104C32000070008182839291909395949697343577
:104C4200366667F1F0F7F6F5F430E200E900EA00C3
:104C5200B500B600B700CD008301CC008A019201F5
:104C620094012102230224022502260227022A029B
:0C4C7200B300B4006F007000818283006A
:00000001FF
