:100000000C94DD060C9424070C9424070C9424070C
:100010000C9424070C9424070C9424070C942407B4
:100020000C9424070C9424070C94E3230C94B5241B
:100030000C94B61A0C9424070C9424070C942407EF
:100040000C9424070C9424070C9424070C94240784
:100050000C9424070C94031B0C9424070C94240781
:100060000C9424070C9424070C9424070C94240764
:100070000C9424070C9424070C9424070C94240754
:100080000C9424070C9424070C9424070C94240744
:100090000C9424070C9424070C9424070C94240734
:1000A0000C9424070C9424070C942407FA0FFA0FDD
:1000B0002C102C1079109710EF11EF11D9106E1130
:1000C0007F117F11DF11EF11EF11E81184128412FB
:1000D000961296128D12961296129612841284120D
:1000E00092129612961292122225492541264925EE
:1000F00041269525B82541260F261E2629003A00BF
:100100003B003C003D003E003F00400041004200FB
:1001100043004400450046004C0035001E001F000F
:1001200020002100220023002400250026002700B3
:100130002D002E002A004A002B0014001A0008008F
:10014000150017001C0018000C00120013002F00EF
:10015000300028004B003900040016000700090099
:100160000A000B000D000E000F00330034003200B7
:1001700000004E00E10064001D001B000600190095
:10018000050011001000360037003800E50052006D
:100190004D00E000E300E200000000002C00000041
:1001A00000000000E6000151E400500051004F0043
:1001B00002510100010001000100010001000100E5
:1001C00001000100010001000100530001000100D5
:1001D0005F006000610001000100010001000100FA
:1001E00001000100010001000100010001005C00AC
:1001F0005D005E000100010001000100010001003E
:1002000001000100010001000100010059005A0035
:100210005B0001000100010001000100010001007C
:1002200001000100000001000100010001000100C7
:1002300001000100010001000100010001000100B6
:1002400001000100010001000100010000000000A8
:100250000100000000000000010001000100010099
:100260000100010001000100010001000100010086
:100270000100010001000100010001000100010076
:10028000005C01000100010001000100010001000B
:100290000100010001000100010001000100010056
:1002A0000100010001000100010001000100010046
:1002B0000100010001000100010001000100010036
:1002C0000100010001000100010001000100010026
:1002D0000100010001000100000001000100010017
:1002E0000100010001000100010001000100010006
:1002F00001000100010001000100010001000100F6
:1003000000000000010000000000000001000100EA
:1003100001000100010001000100010001000100D5
:1003200001000100010001000100010001000100C5
:1003300001000100010001000100010001000100B5
:1003400001000100010001000100010001000100A5
:100350000100010001000100010001000100010095
:100360000100010001000100010001000100010085
:100370000100010001000100010001000100010075
:100380000100010001000100010001000000010066
:100390000100010001000100010001000100010055
:1003A0000100010001000100010001000100010045
:1003B000010001000000000001000000000000003A
:1003C0000100010001000100010001000100010025
:1003D0000100010001000100010001000100010015
:1003E0000100010001000100010001000100010005
:1003F00001000100010001000100010001000100F5
:1004000001000100010001000100010001000100E4
:1004100001000100010001000100010001000100D4
:1004200001000100010001000100010001000100C4
:1004300001000100010001000100010001000100B4
:1004400000000100010001000100010001000100A5
:100450000100010001000100010001000100010094
:100460000100010001000100000000000100000087
:100470000000000001000100010001000100010076
:100480000100010001000100010001000100010064
:100490000100010001000100010001000100010054
:1004A0000100010001000100010001000100010044
:1004B0000100010001000100010001000100010034
:1004C0000100010001000100010001000100010024
:1004D0000100010001000100010001000100010014
:1004E0000100010001000100010001000100010004
:1004F00001000100000001000100010001000100F5
:1005000001000100010001000100010001000100E3
:1005100001000100010001000100010000000000D5
:1005200001000000000000000100010001000100C6
:1005300001000100010001000100010001000100B3
:1005400001000100010001000100010001000100A3
:100550000100010001000100010001000100010093
:100560000100010001000100010001000100010083
:100570000100010001000100010001000100010073
:100580000100010001000100010001000100010063
:100590000100010001000100010001000100010053
:1005A0000100010001000100000001000100010044
:1005B0000100010001000100010001000100010033
:1005C0000100010001000100010001000100010023
:1005D0000000000001000000000000000100010018
:1005E0000100010001000100010001000100010003
:1005F00001000100010001000100010001000100F3
:1006000001000100010001000100010001000100E2
:1006100001000100010001000100010001000100D2
:1006200001000100010001000100010001000100C2
:1006300001000100010001000100010001000100B2
:1006400001000100010001000100010001000100A2
:100650000100010001000100010001000000010093
:100660000100010001000100010001000100010082
:100670000100010001000100010001000100010072
:100680000100010000000000010000000000000067
:100690000100010001000100010001000100010052
:1006A0000100010001000100010001000100010042
:1006B0000100010001000100010001000100010032
:1006C0000100010001000100010001000100010022
:1006D0000100010001000100010001000100010012
:1006E0000100010001000100010001000100010002
:1006F00001000100010001000100010001000100F2
:1007000001000100010001000100010001000100E1
:1007100000000100010001000100010001000100D2
:1007200001000100010001000100010001000100C1
:1007300001000100010001000000000001000000B4
:1007400000000000010001000100010001000100A3
:100750000100010001000100010001000100010091
:100760000100010001000100010001000100010081
:100770000100010001000100010001000100010071
:100780000100010001000100010001000100010061
:100790000100010001000100010001000100010051
:1007A0000100010001000100010001000100010041
:1007B0000100010001000100010001000100010031
:1007C0000100010000000100010001000100010022
:1007D0000100010001000100010001000100010011
:1007E0000100010001000100010001000000000003
:1007F00001000000000000000100010001000100F4
:1008000001000100010001000100010001000100E0
:1008100001000100010001000100010001000100D0
:1008200001000100010001000100010001000100C0
:1008300001000100010001000100010001000100B0
:1008400001000100010001000100010001000100A0
:100850000100010001000100010001000100010090
:100860000100010001000100010001000100010080
:100870000100010001000100000001000100010071
:100880000100010001000100010001000100010060
:100890000100010001000100010001000100010050
:1008A0000000000001000000000000000100010045
:1008B0000100010001000100010001000100010030
:1008C0000100010001000100010001000100010020
:1008D0000100010001000100010001000100010010
:1008E0000100010001000100010001000100010000
:1008F00001000100010001000100010001000100F0
:1009000001000100010001000100010001000100DF
:1009100001000100010001000100010001000100CF
:1009200001000100010001000100010000000100C0
:1009300001000100010001000100010001000100AF
:10094000010001000100010001000100010001009F
:100950000100010000000000010000000000000094
:10096000010001000100010001000100010001007F
:10097000010001000100010001000100010001006F
:10098000010001000100010001000100010001005F
:10099000010001000100010001000100010001004F
:1009A000010001000100010001000100010001003F
:1009B000010001000100010001000100010001002F
:1009C000010001000100010001000100010001001F
:1009D000010001000100010001000100010001000F
:1009E0000000010001000100010001000100010000
:1009F00001000100010001000100010001000100EF
:100A000001000100010001000000000001000000E1
:100A100000000000010001000100010001000100D0
:100A200001000100010001000100010001000100BE
:100A300001000100010001000100010001000100AE
:100A4000010001000100010001000100010001009E
:100A5000010001000100010001000100010001008E
:100A6000010001000100010001000100010001007E
:100A7000010001000100010001000100010001006E
:100A8000010001000100010001000100010001005E
:100A9000010001000000010001000100010001004F
:100AA000010001000100010001000100010001003E
:100AB0000100010001000100010001000000000030
:100AC0000100000000000000010001000100010021
:100AD000010001000100010001000100010001000E
:100AE00001000100010001000100010001000100FE
:100AF00001000100010001000100010001000100EE
:100B000001000100010001000100010001000100DD
:100B100001000100010001000100010001000100CD
:100B200001000100010001000100010001000100BD
:100B300001000100010001000100010001000100AD
:100B4000010001000100010000000100010001009E
:100B5000010001000100010001000100010001008D
:100B6000010001000100010001000100010001007D
:100B70000000000001000000000000000100010072
:100B8000010001000100010001000100010001005D
:100B9000010001000100010001000100010001004D
:100BA000010001000100010001000100010001003D
:100BB000010001000100010001000100010001002D
:100BC000010001000100010001000100010001001D
:100BD000010001000100010001000100010001000D
:100BE00001000100010001000100010001000100FD
:100BF00001000100010001000100010000000100EE
:100C000001000100010001000100010001000100DC
:100C100001000100010001000100010001000100CC
:100C200001000100000000000100000000000000C1
:100C30000100010001000100010001000403300077
:100C4000000010035400450043004C0041004400E4
:100C50004F000000160371006D006B00620075000C
:100C600069006C0064006500720000000403090460
:100C700009023B00020100A0FA090400000103017F
:100C8000010009211101000122400007058103082C
:100C9000000A0904010001030000000921110100FC
:100CA0000122BC000705820320000A120110010086
:100CB000000008EDFE60600100010203010501096A
:100CC00002A10185020901A10005091901290515E3
:100CD00000250195057501810295017503810105C6
:100CE00001093009311581257F95027508810609B2
:100CF000381581257F950175088106050C0A380293
:100D00001581257F950175088106C0C00501098000
:100D1000A101850319012AB700150126B700950125
:100D200075108100C0050C0901A101850419012A73
:100D3000A002150126A002950175108100C00501D1
:100D40000906A1018505050719E029E71500250118
:100D50009508750181020507190029EF1500250185
:100D600095F07501810205081901290595057501A0
:100D70009102950175039101C005010906A10105C4
:100D80000719E029E71500250195087501810295ED
:100D900001750881010507190029FF150026FF00CC
:100DA0009506750881000508190129059505750145
:100DB0009102950175039101C00011241FBECFEF70
:100DC000DAE0DEBFCDBF04B603FE27C08091A802E3
:100DD0009091A902A091AA02B091AB028730904BEA
:100DE000A740B04BD1F41092A8021092A902109221
:100DF000AA021092AB0214BE84B7877F84BF0FB6DD
:100E0000F894A895809160008861809360001092AA
:100E100060000FBEE0E0F8E3099511E0A0E0B1E06A
:100E2000EEECFDE402C005900D92AC38B107D9F7A5
:100E300022E0ACE8B1E001C01D92A83AB207E1F7A8
:100E40000E9412210C94E5260C94000080E090E0B2
:100E500008950895089581E00895089581E0089522
:100E60000C942B0708950C9432071F93CF93DF93B4
:100E700000D000D01F92CDB7DEB749835A836B8371
:100E80003091A60189819A81311114C0662359F0ED
:100E9000222349F00E94BD17182F682F89819A815B
:100EA0000E94661703C00E949117182F69817A81EA
:100EB000812F04C00E94BD1769817A810F900F9025
:100EC0000F900F900F90DF91CF911F910C94E3073B
:100ED000FC01262F408151816281738184810C94B1
:100EE0003507CF93DF93EC0160E00E946807BE01F5
:100EF000DF91CF910C9433070E94EF18811102C04B
:100F00000E9499190C94FD090C94FB090C942D076F
:100F100081E008950C948807CF93C82F0E9486071C
:100F20008C2F0E948A07CF91089508950E94721213
:100F30000E9495072FEF84E39CE021508040904071
:100F4000E1F700C000000C94291B0F931F93CF936F
:100F5000DF93EC0161E00E9468078C01BE010E94F2
:100F60003007882349F1BE01C8010E948D0B8823F8
:100F700019F1BE01C8010E94CE0B8823E9F0BE0121
:100F8000C8010E94F90C8823B9F08A81882369F08E
:100F900001158CE5180731F00E3D1C4531F40E9417
:100FA00099190AC00E94960707C0CE01DF91CF9120
:100FB0001F910F910C942E0780E0DF91CF911F912C
:100FC0000F91089508952AE5829FC0011124FC0124
:100FD0002FE0729FE00DF11D1124E60FF11DEE0FC1
:100FE000FF1FE450FF4F859194910895880F991F3A
:100FF000FC01E45CF34F859194910895CF93DF93C6
:101000000E94E3070E941609EC018115904508F043
:1010100041C0C11580E4D80708F0D1C0C83ED10551
:1010200010F5C03ED10508F0FDC0C83AD10578F4EE
:10103000C53AD10508F0A2C0C130D10509F4F2C00B
:1010400008F4EEC0C430D10508F0ECC0E9C0CF3BD5
:10105000D10508F49BC0C03CD10508F4E1C0CE0125
:10106000805C91099EC0C11590E2D90758F4C11562
:1010700021E0D20708F0D6C0C03FD10508F4D0C0A7
:10108000D065D0C0C11580E3D80708F08EC0CE016E
:101090009F7087C0C11595E5D90708F043C0C115F9
:1010A00024E5D20708F0A2C0C11582E5D80708F5EB
:1010B000C11591E5D90708F085C0CE0174E0969579
:1010C00087957A95E1F783709C2F937021E030E04B
:1010D00002C0220F331F9A95E2F73C68382BCF707D
:1010E000C695C69580E2C89FE0011124C22BD32B80
:1010F00099C09E01237033278C2F86958695C11544
:10110000D34508F064C0C1E0D0E002C0CC0FDD1FC1
:101110002A95E2F720E2829FC0011124C82BD92B27
:10112000DC6880C0C11529E5D207A0F4C11588E5A7
:10113000D80708F060C0C11596E5D90708F070C05F
:101140008C2F0E94AA098F71C82FD0E0DC2FCC27EA
:10115000D06268C0C1152AE5D20708F451C0CE019B
:1011600090568115904208F05BC08D2F8F710E94C0
:10117000AA09DD27D0628F71D82B54C0C55AD0E0A0
:10118000CD5BDE4FC881D0E0D0644CC0C85AD0E0FF
:10119000CC0FDD1FCB5EDE4F0990D881C02DD4640B
:1011A00041C00E94F607EC013DC0CE019927D3FF54
:1011B00003C0EC01D86C36C0EC01D06C33C0DF70DA
:1011C000D06A30C0DC2FCC27C16FD06A2BC0C1E001
:1011D000D0E002C0CC0FDD1F2A95E2F720E2829F0B
:1011E000C0011124C82BD92BDA681CC0DC2FCC27F6
:1011F000C46FD06A17C0DC2FCC27C06FD06A12C072
:101200008C2F8F700E94AA0994E0D695C7959A9565
:10121000E1F7CF70D0E0DC2FCC27D069C82B02C01B
:10122000C0E0D0E0CE01DF91CF91089582389105E2
:1012300069F1B0F48133910509F46DC048F4893245
:10124000910509F463C08A32910509F469C00895D3
:101250008533910509F455C089339105B9F0089596
:10126000833E910569F138F4803E9105B1F0823EEC
:10127000910509F10895863E9105A9F1873E9105F2
:10128000B9F1843E910509F064C023C02091990210
:1012900020FD4FC021FD4DC008958091990280FD31
:1012A00044C080919A0280FF44C08091990284FDDD
:1012B00042C083EE4DC08091990282FF38C0F5CFC5
:1012C0008091990282FD33C080919A0280FD31C0E5
:1012D000ECCF80919A0281FF32C08091990284FD07
:1012E0002AC087EE35C08091990283FF26C0F5CFD2
:1012F0008091990283FD21C080919A0281FD1FC0D7
:10130000ECCF8091990285FD1CC01DC0809199028F
:1013100085FD19C016C08091990286FD16C017C0C0
:101320008091990286FD13C010C089E311C082EE3E
:101330000FC080EE0DC080E00BC086EE09C084EEC9
:1013400007C089E205C085E303C08AE201C081E3EA
:1013500090E008959091990292FF0DC0282F287176
:10136000283019F4877F846006C0282F2471243028
:1013700011F48B7F886093FF0DC0282F28712831CE
:1013800019F4877E846106C0282F2471243111F45A
:101390008B7E886120919A0220FF0DC0382F387112
:1013A000383019F4877F816006C0382F31713130B1
:1013B00011F48E7F886021FF0DC0282F28712831FD
:1013C00019F4877E816106C0282F2171213111F423
:1013D0008E7E886194FD877E0895E82FF0E0EE0F01
:1013E000FF1FE957FD4F808191810895089580EA9C
:1013F0008A95F1F708950C942A070C942907CF9346
:10140000DF93A5E5B1E04BE551E061E070E08D913F
:10141000E82FE295EF70F0E021A18F70EB0102C0A0
:10142000CC0FDD1F8A95E2F7CE019C2F9095922379
:1014300091A392A1892B82A34A175B0741F7A6E4E7
:10144000B1E045E551E061E070E08D91E82FE29573
:10145000EF70F0E021A18F70EB0102C0CC0FDD1F17
:101460008A95E2F7CE019C2F9095922391A392A1A9
:10147000892B82A34A175B0741F7EBE7F2E0A7E865
:10148000B2E087E892E0119211921D921D928E17A0
:101490009F07C9F786E00E94DE0ADF91CF910C9486
:1014A0007C076F927F928F929F92AF92BF92CF9262
:1014B000DF92EF92FF920F931F93CF93DF9385E517
:1014C000C82E81E0D82E0BE712E097E8A92E92E013
:1014D000B92E712C88248394912CF60181916F018F
:1014E000C82FC295CF70D0E099A18F70740101C050
:1014F000EE0C8A95EAF7892F8E2989A38AA16E2C92
:10150000609486218AA30E94F709E6E4F1E040E0B6
:1015100050E020E030E06191A62FA295AF70B0E0DE
:1015200090968C9190E06F7002C0959587956A9522
:10153000E2F780FD08C0C401042E02C0880F991F85
:101540000A94E2F702C080E090E0282B392B4F5F2D
:101550005F4F4F305105F9F689A1682269A28AA12F
:10156000E82AEAA2F801808191812817390721F041
:101570003183208381E001C080E0782A0E5F1F4F15
:10158000A016B10609F0A9CF272D46E067E872E062
:101590008BE792E00E94DF0A0E948407872DDF918B
:1015A000CF911F910F91FF90EF90DF90CF90BF9060
:1015B000AF909F908F907F906F9008950895FF92C5
:1015C0000F931F93CF93DF93F82E092F162FD72F4A
:1015D000C42F222349F081E080938E010E94E81AF3
:1015E00090938D0180938C0180918E018823D9F096
:1015F00080918C0190918D010E94F41A069798F0C9
:10160000EF2DF02FA12FBD2F80E090E04C2F50E068
:101610008417950734F4219131912D933D930196D0
:10162000F7CF10928E01DF91CF911F910F91FF9014
:1016300008950F931F93CF93DF93C62FD42F122FAC
:10164000FC0182818823C9F0609391010E94E81A0D
:101650009093900180938F0180E28C0F883008F086
:1016600057C0C77081E001C0880FCA95EAF7DF91C3
:10167000CF911F910F910C94BA0F80919101681333
:1016800030C080918F01909190010E94F41A883CA3
:10169000910538F500E20D0FCD17B9F080E28C0FFF
:1016A000883040F4C77081E001C0880FCA95EAF71E
:1016B0000E94C10F083028F581E09D2F977001C06E
:1016C000880F9A95EAF70E94BA0F812F0E94A70F00
:1016D0000830F0F4D77081E001C0880FDA95EAF79E
:1016E0000AC080E28C0F883098F4C77081E001C096
:1016F000880FCA95EAF7DF91CF911F910F910C9453
:10170000C10F812FDF91CF911F910F910C94A70FE3
:10171000DF91CF911F910F9108959C01CB01233F41
:101720004CE53407F9F078F4283DFCE53F07B9F0C3
:10173000293D4CE5340711F1273D3C4531F526E2C2
:1017400041EE61EE1EC0253FFCE53F0799F070F0C9
:10175000263F3C45D1F427E245EE66EE12C027E273
:1017600045EE0EC026E241EE60EE0BC027E245EEEC
:1017700064EE07C026E241EE62EE03C028E241E0DB
:1017800065EE0E94190B80E00895FC018281882398
:1017900019F010929101089581E00895CF93DF939D
:1017A000EC01FB018281882309F41FC1C230FCE5F2
:1017B000DF0708F41BC1C6319CE5D90738F09E014C
:1017C0002A5F3C452930310508F010C10E940C19F0
:1017D00090939A0280939902C031ECE5DE0709F4F8
:1017E000C3C008F041C0C8308CE5D80709F49AC0DE
:1017F000F0F4C430ECE5DE0709F487C068F4C230C9
:101800008CE5D80709F477C0C330DC4509F0E3C0A4
:1018100080919902826076C0C630ECE5DE0709F45B
:101820006EC008F07BC08091990288606BC0CC309C
:101830008CE5D80709F485C068F4CA30ECE5DE070A
:1018400009F474C008F079C00E9472128091990264
:10185000806858C0CE308CE5D80709F476C008F00F
:101860007FC0809199028BC0CB3FECE5DE0709F485
:101870004FC018F5C3318CE5D80709F47DC078F462
:10188000C131ECE5DE0709F473C0C231DC4509F073
:10189000A2C00E947212809199028F7733C0C53125
:1018A0008CE5D80709F472C008F486C0CA3FDC454D
:1018B00009F091C080919A023EC0CF3FFCE5DF075E
:1018C00009F45FC058F4CD3F9CE5D90709F444C042
:1018D00008F43FC080919A0282602DC0C130FDE5BE
:1018E000DF0709F475C008F45DC0C230DD4509F0BA
:1018F00072C080E06EC080919902816003C08091C7
:10190000990280618093990266C08091990211C00A
:1019100080919A02826080939A025DC080919902C0
:101920008062F0CF809199028064ECCF809199021F
:1019300088608460E7CF8160EECF809199028E7FCE
:10194000E1CF809199028D7FDDCF80919902877FD1
:10195000D9CF80919A0218C080919A028D7FDBCFF7
:10196000809199028F7ECECF809199028F7DCACFD0
:10197000809199028F7BC6CF80919902877F8B7F60
:10198000C1CF80919A028D7F8E7FC5CF80919902C1
:1019900082FB222720F991E0922790FB82F990FBAD
:1019A00083F9B0CF80919A02982F909591708E7F95
:1019B000892B90FB81F9AFCF0E947212809199021E
:1019C00087FB222720F991E0922790FB87F99ACF95
:1019D00081E00E949B198091990290919A020E9445
:1019E0001D190E94721280E001C081E0DF91CF9149
:1019F0000895CF93DF9386319C4541F5EB010E941A
:101A00003E18982F8A81209100013091010188238E
:101A100079F09A7A81E009F480E080939201911143
:101A200002C069E201C065E3C9010E94361A0AC01A
:101A300080919201811102C069E201C065E3C90190
:101A40000E94411A0E948C1880E001C081E0DF9161
:101A5000CF91089590939801809397010895E09114
:101A60009701F0919801309721F00190F081E02DDD
:101A7000099480E00895E0919701F09198013097E2
:101A800099F020911401222359F02091990227FF07
:101A900007C0DC012C9111962C93119725E02C9313
:101AA0000280F381E02D09940895E0919701F0916F
:101AB0009801309739F022E0DC012C930480F58105
:101AC000E02D0994089520919501309196012817F1
:101AD000390771F09093960180939501E0919701F9
:101AE000F0919801309721F00680F781E02D09945C
:101AF000089520919301309194012817390771F0CE
:101B00009093940180939301E0919701F091980153
:101B1000309721F00084F185E02D0994089585B770
:101B2000806885BF85B7806885BF089508950C9447
:101B3000960D0C94970D0C94960D0C94960D0E9496
:101B40008F0D0E949B0D0C94990D81E008950C94CB
:101B5000A50D0E94DF1A0E94FF090E94991B0C9498
:101B60009D0D7F928F929F92AF92BF92CF92DF9204
:101B7000EF92FF920F931F93CF93DF93CDB7DEB712
:101B80002A970FB6F894DEBF0FBECDBF0E94510A50
:101B90000E94A70D811111C08FEF89838A831B8258
:101BA0000E94E81A8160782F9D838C8349815A8135
:101BB0006B818D810E94610E4FC04AE9A42E41E0E5
:101BC000B42E00E010E0702E802F0E94ED096C0111
:101BD000F501819091905F018826992681149104E6
:101BE00031F40F5F1F4F0630110569F7D5CF809193
:101BF000480281FD0E94F60980E0EE24E394F12C76
:101C000094012E213F21232B09F18E837F82CE2048
:101C1000DF2081E0CD2809F480E088870E94E81A5F
:101C20008160782F9A8789874E815F8168858A8550
:101C30000E94610E000F111FF801E656FE4F8081D1
:101C40009181E826F926F182E08206C08F5FEE0CD2
:101C5000FF1C8F30A9F6C5CF0E944D1E0E942F0D8C
:101C6000909199018917C9F00E942F0D80939901D5
:101C70002A960FB6F894DEBF0FBECDBFDF91CF918D
:101C80001F910F91FF90EF90DF90CF90BF90AF909A
:101C90009F908F907F900C948C072A960FB6F894A3
:101CA000DEBF0FBECDBFDF91CF911F910F91FF908F
:101CB000EF90DF90CF90BF90AF909F908F907F90EC
:101CC0000895CF93DF93CDB7DEB72B970FB6F89477
:101CD000DEBF0FBECDBF4F83588769877A878B875A
:101CE000DE01119686E0FD0111928A95E9F785E003
:101CF000FE01379601900D928A95E1F749815A814C
:101D00006B817C818D819E810E942B152B960FB655
:101D1000F894DEBF0FBECDBFDF91CF910895FC01D7
:101D2000808191810E94FF170895CF93882309F441
:101D3000A4C0C82F8238C1F40E942F0D81FD9DC020
:101D400069E380910001909101010E94361A0E947E
:101D50008C182FEF81EE94E0215080409040E1F705
:101D600000C0000069E319C0833801F50E942F0DFF
:101D700080FD83C063E580910001909101010E9484
:101D8000361A0E948C182FEF81EE94E0215080408B
:101D90009040E1F700C0000063E580910001909160
:101DA00001010E94411ACF910C948C188438C1F41F
:101DB0000E942F0D82FD61C067E480910001909127
:101DC00001010E94361A0E948C182FEF81EE94E0D8
:101DD000215080409040E1F700C0000067E4DDCF73
:101DE0008CEF8C0F813AD0F46C2F80910001909190
:101DF00001010E94B619882349F06C2F80910001DF
:101E0000909101010E94411A0E948C186C2F8091C0
:101E10000001909101010E94361AC5CF80E28C0F1B
:101E2000883048F4C77081E001C0880FCA95EAF78E
:101E30000E944118B8CFEBE5EC0FE33040F4F0E03E
:101E4000E757FE4F808190E0CF910C94630DE8E559
:101E5000EC0FE73150F4F0E0EE0FFF1FE55AFE4FB4
:101E600080819181CF910C94790DC03F30F08C2FFF
:101E70000E94551DCF910C94421ECF910895882346
:101E800009F464C0823879F40E942F0D81FF5EC08E
:101E900069E380910001909101010E94361A0E942D
:101EA0008C1869E310C08338B1F40E942F0D80FFB5
:101EB0004DC063E580910001909101010E94361AA6
:101EC0000E948C1863E580910001909101010E94AD
:101ED000411A0C948C18843879F40E942F0D82FFDB
:101EE00035C067E480910001909101010E94361A8B
:101EF0000E948C1867E4E7CF9CEF980F913A10F49A
:101F0000682FE1CF90E2980F983050F4877091E0FD
:101F100001C0990F8A95EAF7892F0E944718D9CFF7
:101F20009BE5980F933020F480E090E00C94630DD3
:101F300098E5980F973120F480E090E00C94790DAB
:101F4000803F20F00E94BD1D0C94421E0895CF9347
:101F5000C82F0E94950EC93349F42FEF87EE93E006
:101F6000215080409040E1F700C000008C2FCF91BD
:101F70000C943F0F882321F00E9441180C948C1878
:101F80000895882321F00E9447180C948C18089516
:101F9000CF92DF92EF92FF920F931F93CF93DF9335
:101FA0007C01062FC72FFC01158112951F70D2816D
:101FB000D1110E945E180E943718882379F0DD2322
:101FC00069F080E2800F883048F082E00E94D618E5
:101FD0000E94371891E0D82ED92601C0D12CCC2EE2
:101FE000C2948FE0C8228C2D90E0FC01EA5AFF4F8A
:101FF0000C9489268C2F807FCF70882311F0C29596
:10200000C07FDD2399F0CC2309F4C4C180E2800FA6
:10201000883010F0011104C08C2F0E94411803C0B9
:102020008C2F0E9451180E948C18B4C1802F0E94DE
:102030003F0FCC2309F4D3C180E2800F883010F029
:10204000011104C08C2F0E94471803C08C2F0E94DE
:1020500057180E948C18C3C18C2F807FCF7080329C
:1020600011F0C295C07F002319F00130C9F022C0E1
:10207000DD2371F0112341F0113031F40E94711809
:102080008C2B0E947918ABC10E9471188C2B1DC03B
:10209000112319F0113009F4A2C10E94821825C041
:1020A000DD2321F0163008F09AC10EC0153008F07B
:1020B00096C11BC0DD2361F0112331F0F70185814A
:1020C00080FF68C18F7085838C2F0E94BA0F87C1F3
:1020D000112359F0093309F06EC1FFEF27EE83E0B9
:1020E000F15020408040E1F764C18C2F0E94C10F65
:1020F00076C18C2F86958695837019F0813061F0BA
:102100006EC1DD2321F0802F9C2F937002C080E0F0
:1021100090E00E94630D6BC1DD2321F0802F9C2F86
:10212000937002C080E090E00E94790D60C1DD23D1
:10213000F9F0053F51F0063F71F0043FA9F480919A
:1021400093029091940281600BC0809193029091D0
:102150009402826005C08091930290919402846001
:102160009093940280939302802F0E94551D1EC06D
:10217000053F51F0063F71F0043FA9F480919302AE
:10218000909194028E7F0BC0809193029091940263
:102190008D7F05C080919302909194028B7F9093E4
:1021A000940280939302802F0E94BD1D0E94421EC4
:1021B0001EC18C2F837009F045C0D11114C1402F6E
:1021C000429546954770440F440F602F6F70862FDD
:1021D00090E0A0E0B0E0042E04C0880F991FAA1F71
:1021E000BB1F0A94D2F704FF10C00FE010E020E0FC
:1021F00030E004C0000F111F221F331F4A95D2F791
:10220000009510952095309503C000E010E09801EE
:10221000C695C695C370BC01CD01602B712B822B76
:10222000932BC23049F058F4C13019F00E947C164B
:10223000DAC00E946A16D7C00E948E16D4C00E94CF
:102240006816D1C0DD2319F08C2F817001C08695EE
:10225000882309F4C8C0402F429546954770440F23
:10226000440F602F6F70862F90E0A0E0B0E0042E46
:1022700004C0880F991FAA1FBB1F0A94D2F704FF3E
:1022800010C00FE010E020E030E004C0000F111F8C
:10229000221F331F4A95D2F700951095209530954F
:1022A00003C000E010E09801C695C695C370BC015C
:1022B000CD01602B712B822B932BC23049F058F447
:1022C000C13019F00E9441178EC00E942F178BC099
:1022D0000E94531788C00E94A21685C0CF70DD23CC
:1022E00039F08C2F0E94C816802F0E94BA0F7BC035
:1022F000802F0E94C10F8C2F0E94E91674C0023FEC
:1023000001F128F4003F41F0013FA1F03FC0033F3D
:10231000F9F0043F39F13AC0DD2341F0153008F0FF
:102320005EC08C2F8F710E940E1759C0163008F0B6
:1023300056C0F7CFDD2339F08C2F8F710E94C8165D
:102340004EC0DD23C9F38C2F8F710E94E91647C060
:10235000DD2329F08C2F8F710E94B31640C00E949C
:10236000AE163DC0DD2349F0CF718C2F0E94C816F8
:1023700063E08C2F0E94C11832C081E00E94D61801
:10238000123068F182E00E94D61829C0DD2331F0B6
:10239000112391F2802F0E94950E21C0112399F2F2
:1023A000093349F49FEFE7EEF3E09150E040F0404D
:1023B000E1F700C00000802F0E943F0F10C04C2F9B
:1023C0004F70602FC7010E9426070E94D9150FC0C9
:1023D0004C2F4F70602FC7010E94E20708C088EFA2
:1023E0008C0D843020F40E942F0D0E948C07DD207C
:1023F000C9F00E94331880FD15C0F70112820E94B7
:102400002D180E94C816C7010E9433120E942D1871
:10241000DF91CF911F910F91FF90EF90DF90CF90C0
:102420000C94E916DF91CF911F910F91FF90EF90DF
:10243000DF90CF9008950F931F93CF93DF93EC011C
:10244000688179818A810E940A188C010E9465172F
:102450000E945616B801CE010E94C80FDF91CF919D
:102460001F910F910895CF93DF93FC01908181819B
:1024700023813481232B31F08F3F31F481E09F3F62
:1024800019F403C081E001C080E080FD0EC0EF01BF
:10249000CF010E94A507882341F0CE010E941B12A4
:1024A000CE01DF91CF910C947107DF91CF91089508
:1024B0000E945E180E946E180E948C180E946C1F69
:1024C0000E94421E80E090E00E94630D80E090E058
:1024D0000C94790D80910001909101010E944C1A99
:1024E0000C9458120E944E180C946A12E92FE2952F
:1024F000EF704E2F50E0FA013297EE30F105B0F454
:10250000EA59FF4F0C948926803F91F018F4883ED9
:1025100068F40EC0843F51F40BC0883E48F0813F00
:1025200029F406C093FB882780F9089580E0089578
:1025300081E008950E94FF170E9476120895CF93BC
:10254000DF9300D000D01F92CDB7DEB70F900F9071
:102550000F900F900F90DF91CF910895CF93DF935D
:1025600000D000D000D0CDB7DEB726960FB6F894D5
:10257000DEBF0FBECDBFDF91CF9108951F93CF93E4
:10258000DF93C091A70116E08091A801C81799F0C8
:10259000D0E01C9FF0011D9FF00D1124E755FE4F68
:1025A0004081518162817381848195810E94AE1244
:1025B0002196C770E9CFDF91CF911F910895409187
:1025C000D9015091DA016091DB017091DC018091B9
:1025D000DD019091DE010C94AE120F931F93CF9307
:1025E000DF938091DE0182958F7009F05DC080914C
:1025F000DB01882309F458C08091A7011091A8013C
:102600006091D9017091DA01C091DC01D091DD01B6
:1026100091E06F3F09F090E0292F06E0811709F45F
:1026200043C0209721F07F3F21F030E003C031E02C
:1026300001C0322F90E030FD34C0089FF001099FA7
:10264000F00D1124DF01A755BE4F11963C91119753
:10265000371327C03C91361324C012963C91129731
:1026600031111FC013964D915C9114974C1B5D0B5B
:10267000483C5105B0F48091DE018F7080618093F9
:10268000DE01E255FE4F80818F708061808389ED8D
:1026900091E00E943312DF91CF911F910F910C9422
:1026A000BE1201968770BACFDF91CF911F910F9123
:1026B00008959F92AF92BF92CF92DF92EF92FF92D6
:1026C0000F931F93CF93DF93CDB7DEB761970FB60C
:1026D000F894DEBF0FBECDBF8C0185E0F801DE01AE
:1026E0001D9601900D928A95E1F7F8014081518184
:1026F000E2809091D9016091DA012091DC01309162
:10270000DD012115310531F06F3F31F481E09F3F4C
:1027100019F403C081E001C080E0F82FF1709F2E12
:1027200080FD46C1F801A380B48089EDC82E81E008
:10273000D82EF090DB01F501E21BF30BFF2009F42A
:10274000DFC08091DE01E83CF10508F09BC0282F36
:10275000207F09F052C0561313C0491311C0FE2C3C
:10276000E1100EC08F7080618093DE010E94DF1245
:10277000C6010E9433128091DE01F801858358C1A1
:10278000AB2831F05F3F31F481E04F3F19F403C0D3
:1027900081E001C080E080FD03C081E08E2502C0A1
:1027A00080E090E0F82FF170FF2E80FF1CC0809138
:1027B000A7012091A80136E0821709F417C190E023
:1027C000389FF001399FF00D1124E755FE4F6181CC
:1027D000561306C06081461303C06281E61203C02F
:1027E00001968770E9CFFE2CEE2009F421C180917B
:1027F000DE0181608093DE015AC0561306C0491382
:1028000004C0E11002C0F8019FC04D875E878D852E
:102810009E850E949A12882379F1EE2069F1209119
:10282000DE01822F82958F7090E0029774F0809184
:10283000D9019091DA0198878F831986BB86AA8681
:102840002C87CE0107960E94331286E0F801A9ED8D
:10285000B1E001900D928A95E1F70E94ED120E947D
:10286000DF120DC0561729F14D875E878D859E8535
:102870000E949A1281112CC0C8010E943312FF24B9
:10288000F394D6C0282F207F69F77A2DB98AA88AB9
:102890006E2D89890E949F1289ED91E00E9433126A
:1028A00086E0F60111928A95E9F70E94DF12F12C79
:1028B000BFC04913D9CFE110D7CFF8018583C80134
:1028C0000E94331286E0F60111928A95E9F7B0C0B2
:1028D000EE2091F22091DE01822F82958F7090E0A0
:1028E00002970CF4B2CF8091D9019091DA019A83CA
:1028F00089831B82BD82AC822E83CE010196A3CF39
:10290000E83CF10508F047C0FE2CEE2009F4B4CFF6
:10291000561330C049132EC02091DE0120FD21C086
:10292000822F82958F70482F50E041155105C9F0D4
:10293000F80125834F30510541F08F5F982F929514
:10294000907F822F8F70892B8583C8010E9433125C
:1029500086E0F801A9EDB1E001900D928A95E1F7CA
:1029600042C086E0F801A9EDB1E001900D928A9590
:10297000E1F75EC04D875E878D859E850E949A1225
:10298000811163CF8091DE0181608093DE01C801F7
:102990000E9433124DC07A2DB98AA88A6E2D89897A
:1029A0000E949F1286E0F60111928A95E9F71BC0FA
:1029B000EE2009F461CF4D875E878D859E850E944C
:1029C0009A12F82E882309F457CF86E0F801A9ED72
:1029D000B1E001900D928A95E1F789ED91E00E94B6
:1029E0008F0E0E94ED120E94DF1222C04D875E877B
:1029F0008D859E850E94FF17292F22952F702230EA
:102A000028F49F7039F0811105C00BC0243028F4E0
:102A10009F7049F4805E883020F0C8010E94331214
:102A20009F2CF92C05C0F8019581907F99F7F9CF7B
:102A30008F2D61960FB6F894DEBF0FBECDBFDF912C
:102A4000CF911F910F91FF90EF90DF90CF90BF90AB
:102A5000AF909F9008951F93CF93DF93CDB7DEB7CC
:102A60002C970FB6F894DEBF0FBECDBF4F835887AB
:102A700069877A878B879C87CE0107960E945913B6
:102A80008823D1F09F8188852A853B85232B31F0CF
:102A90008F3F31F481E09F3F19F403C081E001C012
:102AA00080E080FD47C04F81588569857A858B8598
:102AB0009C850E94AE123EC086E0FE013796DE0184
:102AC000119601900D928A95E1F7FF81E8856A855C
:102AD0007B856115710531F0EF3F31F481E0FF3FF7
:102AE00019F403C081E001C080E080FD23C0209183
:102AF000A80130E0C9010196877099274091A7018C
:102B000050E084179507F1F1F983EA837D836C83A4
:102B100096E0929FD001939FB00D1124A755BE4F10
:102B2000FE01319601900D929A95E1F78093A801EC
:102B30000E94BE1216E08091A7019091A80189170A
:102B400071F1189FC001112487559E4F0E9459139F
:102B5000882329F1E091A7011E9FF0011124E75578
:102B6000FE4F4081518162817381848195810E94F1
:102B7000AE128091A70190E001968770992780930B
:102B8000A701D9CF0E9472121092A8011092A7013A
:102B9000E9EDF1E086E0DF011D928A95E9F72C96D8
:102BA0000FB6F894DEBF0FBECDBFDF91CF911F915E
:102BB0000895EF92FF920F931F93CF93DF938C01B1
:102BC000892B09F46CC0F12CEE24E394E8012196E2
:102BD000F8018491843740F4843008F051C081308A
:102BE00081F0823019F15BC0853709F444C0A8F147
:102BF0009CE7980F903708F052C08F770E943F0FE4
:102C000041C00E5F1F4FFE01849190E2980F9830F3
:102C100050F48770FE2D01C0FF0F8A95EAF78F2FC1
:102C20000E94611814C00E94950E2DC00E5F1F4FA8
:102C3000FE01849190E2980F983060F48770FE2D29
:102C400001C0FF0F8A95EAF78F2F0E9467180E9434
:102C50008C1819C00E943F0F16C00E5F1F4FFE0157
:102C6000C491CC2381F08FE99FE00197F1F700C078
:102C70000000C150F6CF0E5F1F4FFE01F49003C05D
:102C80000E94950E8E018F2D882309F49FCFEFE9C6
:102C9000FFE03197F1F700C000008150F5CFDF91E0
:102CA000CF911F910F91FF90EF900895089508958F
:102CB0000C9457160C9458160E945A1660931F02D3
:102CC0007093200280932102909322020C94581258
:102CD0000C945C160F931F9300911F021091200219
:102CE0002091210230912202602B712B822B932B99
:102CF0001F910F910C945C160F931F9300911F026C
:102D00001091200220912102309122026023712330
:102D1000822393231F910F910C945C160F931F93A2
:102D200000911F0210912002209121023091220275
:102D300060277127822793271F910F910C945C16AF
:102D40000C9457160E94A01660931B0270931C02ED
:102D500080931D0290931E020C94581260E070E064
:102D6000CB010C94A2160F931F9341E050E060E05A
:102D700070E08A019B0104C0000F111F221F331F46
:102D80008A95D2F7C901B8011F910F910C94A21630
:102D90000F931F9341E050E060E070E004C0440FE7
:102DA000551F661F771F8A95D2F780911B0290915D
:102DB0001C02A0911D02B0911E028A019B01082BEA
:102DC000192B2A2B3B2BC901B8011F910F910C9491
:102DD000A2160F931F9341E050E060E070E004C042
:102DE000440F551F661F771F8A95D2F7409550955F
:102DF0006095709580911B0290911C02A0911D021C
:102E0000B0911E028A019B01082319232A233B2328
:102E1000C901B8011F910F910C94A2160F931F9333
:102E200041E050E060E070E004C0440F551F661FB1
:102E3000771F8A95D2F780911B0290911C02A09176
:102E40001D02B0911E028A019B01082719272A271B
:102E50003B27C901B8011F910F910C94A2160F9343
:102E60001F9300911B0210911C0220911D023091B2
:102E70001E02602B712B822B932B1F910F910C94B0
:102E8000A2160F931F9300911B0210911C02209118
:102E90001D0230911E0260237123822393231F9110
:102EA0000F910C94A2160F931F9300911B02109187
:102EB0001C0220911D0230911E026027712782277B
:102EC00093271F910F910C94A21608952FE0929FC3
:102ED000800D1124E82FE695E695E695877051E080
:102EE00001C0550F8A95EAF785E0E89FF0011124AB
:102EF000E152FE4F20E030E070E04081CB01022E35
:102F000002C0969587950A94E2F78170819584278F
:102F10008523842781932F5F3F4F2530310569F743
:102F200008952FE0929F800D1124682F6695669575
:102F30006695982F977085E0689FB001112440E056
:102F400050E080E0FB01E40FF51FE152FE4F2081CD
:102F500030E0092E02C0369527950A94E2F72170D9
:102F60003327042E01C0220F0A94EAF7822B4F5F09
:102F70005F4F4530510531F70895BF92CF92DF92F0
:102F8000EF92FF920F931F93CF93DF938C01C0902A
:102F90001B02D0901C02E0901D02F0901E02809156
:102FA0001F0290912002A0912102B0912202C82A12
:102FB000D92AEA2AFB2ACFE1D0E0D701C6010C2E9C
:102FC00004C0B695A795979587950A94D2F780FD8A
:102FD00004C0219790F7B12C07C0BC2EB8018C2FEC
:102FE0000E94FE070197A9F38B2DDF91CF911F91CE
:102FF0000F91FF90EF90DF90CF90BF900895CF9307
:10300000DF93EC010E94BD17BE010E94FE07DF9115
:10301000CF9108951F93CF93DF93EB019091A60179
:10302000992321F0CB010E94FF1713C0882349F098
:10303000CB010E94BD17182F682FCE010E94661782
:1030400004C0CB010E949117182FBE01812F0E944E
:10305000FE07DF91CF911F910895809123028595FE
:1030600085958595089580912302877008959091A4
:103070002302977081E009F480E00895809147026F
:10308000089590914702892B809347020895809577
:103090009091470289238093470208951092470236
:1030A000089590914602892B809346020895809559
:1030B0009091460289238093460208951092460219
:1030C000089590914502892B80934502089580953B
:1030D00090914502892380934502089510924502FC
:1030E000089580912402089508950C9474180C9406
:1030F000751890912402981721F0809324020C9463
:103100007718089580912402882329F010922402D0
:1031100080E00C9477180895E0910001F09101018E
:10312000809147028083E0910001F091010190813C
:1031300080914602892B8083E0910001F09101018A
:10314000908180914502892B80838091240288237D
:1031500081F0E0910001F09101019081892B808341
:1031600080910001909101010E94A01981110E949B
:10317000821880910001909101010C943B0D0C94F8
:10318000741898E0899F90011124262B2093230224
:103190000E94C816809123028595859585950C948B
:1031A000BF181092230280E00C94BF1820912302D4
:1031B0008095822380932302982F977079F430E0D2
:1031C000482F082E000C550B2417350739F085952C
:1031D000859585950E94E9160C94D118089580E094
:1031E00090E00E94AB2621E08C3E9E4F09F020E04B
:1031F000822F089582E090E00C94A326682F82E04D
:1032000090E00C94B12683E090E00C94A326682F04
:1032100083E090E00C94B126CF9384E090E00E948C
:10322000A326C82F81E290E00E94A3262C2F30E035
:10323000A901582BCA01CF910895CF93C92F682FA8
:1032400084E090E00E94B1266C2F81E290E0CF9163
:103250000C94B126AB01BC018FE090E00C94C32626
:10326000AB01BC0183E190E00C94C32660E070E008
:10327000CB010C94301960E070E0CB010E942A1958
:103280000C9436196CEE7EEF80E090E00E94CF2621
:1032900060E082E090E00E94B12660E083E090E090
:1032A0000E94B12610921F02109220021092210259
:1032B0001092220260E084E090E00E94B12660E07B
:1032C00081E290E00E94B12660E085E090E00E94FB
:1032D000B12660E086E090E00E94B1266FEF87E0C3
:1032E00090E00E94B12640E050E0BA0188E090E012
:1032F0000E94C32660E08DE090E00E94B12640E08D
:1033000050E0BA0188E190E00E94C32660E087E1C6
:1033100090E00E94B12640E050E0BA018CE190E0DC
:103320000E94C32660E080E290E00E94B1260C94E7
:103330003B190C944219682F8EE090E00C94B12652
:10334000FC01329680911401882331F0809199021A
:1033500087FF02C09EE101C096E080E0915028F016
:1033600021912223D9F38F5FF9CF0895662351F17C
:10337000209114012223E9F02091990227FF19C01E
:10338000462F4695469546954E31E0F4677021E00C
:1033900030E002C0220F331F6A95E2F7FC01E40F10
:1033A000F11D828190E02823392381E0232B69F4E9
:1033B00009C0FC01329608962191621729F0E8179E
:1033C000F907D1F780E0089581E008959C01FC01A0
:1033D00032969FEF80E04191461789F09F3F19F4A4
:1033E000411101C0982F8F5F8630A9F79F3F39F0B8
:1033F000F901E90FF11D97FDFA956283089508958B
:103400009C012A5F3F4FFC014281461301C012829A
:10341000019682179307B9F70895262F26952695CA
:1034200026952E3168F4FC01E20FF11D677021E052
:1034300030E001C0220F6A95EAF78281282B2283AF
:103440000895262F2695269526952E3170F4FC0199
:10345000E20FF11D677021E030E001C0220F6A9594
:10346000EAF7209582812823228308952091140170
:10347000222329F02091990227FD0C940D1A0C9417
:10348000E61920911401222329F02091990227FDA9
:103490000C94211A0C94001A20911401FC0132960C
:1034A000222331F08091990287FF02C08EE101C092
:1034B00086E0DF011D928A95E9F7089508950C943E
:1034C0005E1A0C945E1ACF930E94611A0E94510AF0
:1034D0000E945F1AC0E08C2F0E94ED09892B29F40D
:1034E000CF5FC630C1F780E001C081E0CF91089581
:1034F0000C945E1A0C94781A0E947A1A80919F029A
:10350000843049F11092490220E488E190E00FB63E
:10351000F894A895809360000FBE2093600080E02F
:103520000E948C070E947A1A83B7817F846083BFD0
:1035300083B7816083BF7894889583B78E7F83BF7C
:103540000FB6F894A8958091600088618093600020
:10355000109260000FBE08950C945E1A0E947212C1
:103560000E942F0D0E948C070C94AC1A1F920F9290
:103570000FB60F9211248F939F93AF93BF938091B7
:103580004902811113C08091950290919602A091F9
:103590009702B09198024196A11DB11D80939502AA
:1035A00090939602A0939702B0939802BF91AF9127
:1035B0009F918F910F900FBE0F901F90189582E0F2
:1035C00084BD93E095BD9AEF97BD80936E000895FA
:1035D0002FB7F8948091950290919602A09197024E
:1035E000B09198022FBF08959C014FB7F894809135
:1035F000950290919602A0919702B09198024FBFC8
:10360000821B930B089578941F920F920FB60F921E
:1036100011248F939F93AF93BF93809195029091C4
:103620009602A0919702B09198020196A11DB11D3A
:103630008093950290939602A0939702B09398027C
:10364000BF91AF919F918F910F900FBE0F901F90E0
:10365000189581E08093E00080E28093D80010927A
:10366000C9008FE19EE40197F1F700C0000087E0F8
:1036700090EBDC018093A8029093A902A093AA0288
:10368000B093AB029CE088E10FB6F894A8958093C4
:1036900060000FBE90936000FFCFAF92BF92CF92B9
:1036A000DF92EF92FF920F931F93CF93C0E0CC2451
:1036B000C394D12CE82EF12C8C2F0E94ED095C01D3
:1036C00000E010E0C601002E02C0880F991F0A9486
:1036D000E2F78A219B21892B31F40F5F1F4F0F30B6
:1036E000110581F70AC0602F7C2F80E00E94E3075C
:1036F000E816F90691F781E004C0CF5FC630E1F625
:1037000080E0CF911F910F91FF90EF90DF90CF90CD
:10371000BF90AF900895CF93C82F8CE20E944D1BAD
:10372000882321F08C2FCF910C944D1B80E0CF91FA
:103730000895CF930E94EF18811102C00E94991939
:10374000C5E6C15049F00E94510A8FE39CE90197F8
:10375000F1F700C00000F5CF89E20E948B1B8111B8
:1037600020C18AE20E948B1B81110E94991985E079
:103770000E948B1B81110E94291B0E94FA188093C2
:10378000480287E00E948B1B8823A9F18BE10E94ED
:103790008B1B882351F08091480281FB222720F95E
:1037A00091E0922790FB81F90EC08EE00E948B1B66
:1037B000882361F08091480282FB222720F991E062
:1037C000922790FB82F98093480215C080E10E9405
:1037D0008B1B90914802882341F093FB222720F90C
:1037E00081E0822780FB93F904C0892F809580FBBC
:1037F00090F990934802809148020E94FE180E941E
:103800000C1990939A028093990280EE0E948B1B70
:10381000882341F080919902982F909590FB80F930
:103820008093990289E30E948B1B882359F0809131
:10383000990281FB222720F991E0922790FB81F9E0
:103840008093990282EE0E948B1B882359F080910D
:10385000990282FB222720F991E0922790FB82F9BE
:103860008093990286EE0E948B1B882359F08091E9
:10387000990283FB222720F991E0922790FB83F99C
:103880008093990283EE0E948B1B882359F08091CC
:10389000990284FB222720F991E0922790FB84F97A
:1038A0008093990285E30E948B1B882359F08091B5
:1038B000990285FB222720F991E0922790FB85F958
:1038C0008093990281E30E948B1B882359F0809199
:1038D000990286FB222720F991E0922790FB86F936
:1038E0008093990281E10E948B1B882359F080917B
:1038F000990287FB222720F991E0922790FB87F914
:10390000809399028091990290919A020E941D19C8
:1039100087E20E948B1BC82F8EE10E948B1B8111B6
:10392000C2608FE10E948B1B8111C46080E20E9403
:103930008B1B8111C86081E20E948B1B8111C061C9
:1039400082E20E948B1B8111C06283E20E948B1B6A
:103950008111C06484E20E948B1B882311F0C0682F
:1039600002C0CC2329F08C2F0E9407196C2F03C0B2
:103970000E940319682F70E080E090E00E946816B2
:103980008FE00E948B1B882319F081E00E949B1915
:1039900085E10E948B1B882321F080E0CF910C945D
:1039A0009B19CF9108958091510280FF0BC06091C7
:1039B000070185E0689FB00111247595679575959D
:1039C00067952BC081FF09C06091070185E0689F62
:1039D000B00111247595679520C082FF07C06091E2
:1039E000070185E0689FB001112417C09091500233
:1039F0009923D1F060910601961788F7209107016D
:103A000085E0289F90011124929FA001939F500D63
:103A1000112470E0CA010E9475266038710540F4D7
:103A20006115710519F406C065E070E0862F0895F0
:103A30008FE7089581E008958091510280FF08C0CA
:103A40006091030170E0759567957595679521C044
:103A500081FF06C06091030170E07595679519C0FC
:103A600082FF04C06091030170E010C09091500289
:103A7000992399F0609102019617A0F780910301B4
:103A8000899FC001112470E00E947526603871057D
:103A900040F46115710519F406C061E070E0862FED
:103AA00008958FE7089581E00895803F21F40E94F2
:103AB000D31C819504C0813F29F40E94D31C8093BC
:103AC00055020895823F21F40E94D31C819504C0C1
:103AD000833F29F40E94D31C809354020895893FA8
:103AE00019F40E941C1D05C08A3F31F40E941C1D60
:103AF00081958093560208958B3F21F40E941C1DEE
:103B0000819504C08C3F29F40E941C1D80935702AC
:103B10000895843F21F480915302816017C0853F4E
:103B200021F480915302826011C0863F21F480917C
:103B3000530284600BC0873F21F480915302886058
:103B400005C0883F31F48091530280618093530215
:103B500008958D3F21F48091510281600BC08E3F0A
:103B600021F480915102826005C08F3F29F4809139
:103B700051028460809351020895803F39F480910E
:103B8000550287FF6CC01092550269C0813F29F42D
:103B9000809155021816BCF362C090915402823F86
:103BA00029F497FF5CC01092540259C0833F19F466
:103BB0001916CCF354C0893F41F48091560218166F
:103BC0000CF04DC0109256024AC08A3F29F48091F1
:103BD000560287FF44C0F6CF8B3F39F480915702DD
:103BE00087FF3DC0109257023AC08C3F29F4809164
:103BF00057021816BCF333C0843F21F4809153025E
:103C00008E7F17C0853F21F4809153028D7F11C0B4
:103C1000863F21F4809153028B7F0BC0873F21F4B4
:103C200080915302877F05C0883F31F48091530211
:103C30008F7E8093530213C08D3F21F480915102F7
:103C40008E7F0BC08E3F21F4809151028D7F05C085
:103C50008F3F29F4809151028B7F80935102809194
:103C6000540281110EC08091550281110AC08091C9
:103C70005602811106C080915702811102C0109234
:103C80005002089582E592E00E94550D0E94E81AC4
:103C900090934F0280934E020895CF93DF9300D00C
:103CA00000D000D0CDB7DEB786E0E2E5F2E0DE017D
:103CB000119601900D928A95E1F78091540281113D
:103CC00005C080915502882309F47AC080914C0286
:103CD00090914D020E94F41AAC01909150029923E8
:103CE00039F02091080130E02417350758F068C0FA
:103CF000209109018AE0289F90011124241735079B
:103D000018F05EC09F3F19F09F5F90935002109291
:103D100056021092570280915402181624F40E9401
:103D2000D31C809354028091540287FF05C00E94E7
:103D3000D31C81958093540280915502181624F467
:103D40000E94D31C809355028091550287FF05C0C5
:103D50000E94D31C819580935502309154023323E5
:103D6000E1F0209155022223C1F045EB3403C0015C
:103D70001124992319F09093540203C081E0809399
:103D8000540235EB2303C0011124992319F09093B9
:103D9000550203C081E0809355020E94421E80912B
:103DA0004E0290914F0290934D0280934C0286E018
:103DB000FE013196A2E5B2E001900D928A95E1F7FD
:103DC00080915602811105C080915702882309F421
:103DD0007AC080914A0290914B020E94F41AAC0181
:103DE00090915002992339F02091040130E024177A
:103DF000350758F068C0209105018AE0289F90019E
:103E000011242417350718F05EC09F3F19F09F5FFB
:103E100090935002109254021092550280915602D3
:103E2000181624F40E941C1D80935602809156029D
:103E300087FF05C00E941C1D8195809356028091CA
:103E40005702181624F40E941C1D8093570280917B
:103E5000570287FF05C00E941C1D81958093570261
:103E6000309156023323E1F0209157022223C1F012
:103E700045EB3403C0011124992319F090935602A5
:103E800003C081E08093560235EB2303C001112467
:103E9000992319F09093570203C081E08093570251
:103EA0000E94421E80914E0290914F0290934B02CD
:103EB00080934A0286E0FE013196A2E5B2E00190CD
:103EC0000D928A95E1F726960FB6F894DEBF0FBEE5
:103ED000CDBFDF91CF910895E2E5F2E086E0DF010A
:103EE0001D928A95E9F7109250021092510208959E
:103EF000809178020895CF93DF9300D01F92CDB7C1
:103F0000DEB790919F02943019F589837B836A8391
:103F100082E08093E9008FEF9091E800815095FD59
:103F200006C095ED9A95F1F700008111F5CF8091CB
:103F3000E80085FF0DC040E050E063E070E0CE0196
:103F400001960E94D7218091E8008E778093E80047
:103F50000F900F900F90DF91CF910895CF93DF9343
:103F6000EC010E94BA21823011F0843031F4BE019C
:103F700084E0DF91CF910C947B1FDF91CF91089566
:103F8000BC0183E00C947B1FCF93DF93EC010E9474
:103F9000BA21823011F08430F9F482E08093E90094
:103FA0008FEF9091E800815095FD06C095ED9A95B0
:103FB000F1F700008111F5CF8091E80085FF0CC07A
:103FC00040E050E066E070E0CE010E94D721809191
:103FD000E8008E778093E800DF91CF910895CF932A
:103FE000DF93EC010E94BA21823011F08430D9F5C0
:103FF00080911401882339F08091990287FF03C0D2
:1040000060E282E002C068E081E08093E9008FEF27
:104010009091E800815095FD06C095ED9A95F1F7D5
:1040200000008111F5CF8091E80085FF1CC08091D0
:104030001401811105C040E050E068E070E003C069
:1040400070E040E050E0CE010E94D7218091E8006E
:104050008E778093E80080E2FE01A8E5B2E001904F
:104060000D928A95E1F7DF91CF91089580919E029C
:10407000811109C00E9468230E94C5238091E2003B
:1040800084608093E200089510929E02089508953E
:1040900008950C94AE1A42E061EC81E00E94E122A6
:1040A00042E261EC82E00C94E1228091A102833033
:1040B00009F460C030F4813071F0823009F499C0A5
:1040C00008958A3009F485C08B3009F46BC08930BB
:1040D00009F0A7C020C08091A002813A09F0A1C0D8
:1040E0008091E800877F8093E8008091A4029091FE
:1040F000A502892B21F460E288E592E003C060E02C
:1041000080E090E070E00E9422228091E8008B77AE
:104110008093E80008958091A002813209F081C067
:104120008091A4029091A502029708F07AC0809134
:10413000E800877F8093E8008091E80082FD05C059
:1041400080919F028111F8CF6CC02091F300809183
:10415000F20090E0922B029729F48091F1008B7F7E
:10416000813021F48091F100809378028091E80001
:104170008B7753C08091A002813A09F052C08091A0
:10418000A4029091A502892B09F04BC08091E80010
:10419000877F8093E8008091E80080FFFCCF8091CA
:1041A000140136C08091A0028132D9F58091A40219
:1041B0009091A502892BA9F58091E800877F8093D3
:1041C000E8000E9416238091A202809314010C94AF
:1041D00072128091A002813221F58091E800877FE0
:1041E0008093E8000E9416238091A30280937902B5
:1041F00008958091A002813AA1F48091E800877F20
:104200008093E8008091E80080FFFCCF80917902E4
:104210008093F1008091E8008E778093E8000C9401
:104220001623089584B7877F84BF0FB6F894A895A6
:1042300080916000886180936000109260000FBEE2
:1042400090E080E80FB6F89480936100909361004D
:104250000FBE0E949F0D0E9468230E94C52380917B
:10426000E20084608093E20078940E945A260E94C3
:10427000A90D8AE091E00E942A0D80919F0285306D
:1042800069F40E947C1A80919D028823B1F30E94F8
:10429000631A882391F30E94C121EFCF0E94B10DD0
:1042A000ECCF0C945321292F332723303105C9F04B
:1042B00060F42130310581F02230310509F04AC027
:1042C0008BE390E020E73CE049C02132310511F159
:1042D0002232310579F13EC082E190E02BEA3CE0E8
:1042E0003DC099278130910561F040F08230910501
:1042F00059F0039779F5ECE3FCE008C0ECE6FCE04C
:1043000005C0E4E5FCE002C0E2E4FCE0849190E05A
:104310009F0124C06115710541F061307105D1F430
:1043200089E090E02BE93CE019C089E090E022E8C8
:104330003CE014C06115710541F06130710551F424
:104340008CEB90E02DEB3CE009C080E490E029E7A5
:104350003DE004C080E090E020E030E0FA013183ED
:104360002083089580919F02843011F081E00895A8
:1043700082E0089580917A02811102C00C94B221EA
:10438000089580E189BD82E189BD09B400FEFDCFB9
:104390008091D8008F7D8093D8008091E00082606A
:1043A0008093E0008091E00081FDFCCF0895CF92E2
:1043B000DF92EF92FF920F931F93CF93DF93EC0165
:1043C0008B017A010E943523811133C0E114F1047D
:1043D00039F0F70180819181081B190BC80FD91F93
:1043E000C12CD12C0115110519F18091E80085FD32
:1043F00016C08091E8008E778093E800E114F10404
:1044000049F0F70180819181C80ED91ED182C08206
:1044100085E00FC00E943523882321F30AC08991CB
:104420008093F10001501109FFEFCF1ADF0ADACFB4
:1044300080E0DF91CF911F910F91FF90EF90DF907F
:10444000CF9008952091A6023091A7022617370732
:1044500048F06115710539F42091E8002E7720931A
:10446000E80001C0B901FC0120E06115710579F196
:1044700080919F028823F1F18530F1F18091E8006D
:1044800083FD3CC08091E80082FD2EC08091E80051
:1044900080FFEBCF2091F3008091F20090E0922B0F
:1044A0006115710551F08830910538F42191209300
:1044B000F100615071090196F3CF21E0089709F0EE
:1044C00020E08091E8008E778093E800CECF211124
:1044D000CFCF0AC080919F02882361F0853061F0C0
:1044E0008091E80083FD0AC08091E80082FFF2CF4E
:1044F00080E0089582E0089583E0089581E00895C2
:104500002091A6023091A7022617370748F06115BF
:10451000710539F42091E8002E772093E80001C05E
:10452000B901FC0120E06115710591F180919F02B4
:10453000882309F440C0853009F43FC08091E80029
:1045400083FD3DC08091E80082FD2FC08091E8008E
:1045500080FFE9CF2091F3008091F20090E0922B50
:104560006115710559F08830910540F4249120932C
:10457000F1003196615071090196F2CF21E0089760
:1045800009F020E08091E8008E778093E800CBCF9F
:104590002111CCCF0AC080919F02882361F0853021
:1045A00061F08091E80083FD0AC08091E80082FFFD
:1045B000F2CF80E0089582E0089583E0089581E0DD
:1045C0000895982F973068F59093E900981739F07F
:1045D0007091EC002091ED005091F00003C0242F69
:1045E000762F50E021FD02C09F5FECCF3091EB00B1
:1045F0003E7F3093EB003091ED003D7F3093ED0036
:104600003091EB0031603093EB007093EC0020931D
:10461000ED005093F0002091EE0027FDE5CF80E003
:1046200008958F708093E90081E008958091A00241
:1046300087FF11C08091E80082FD05C080919F0234
:104640008111F8CF11C08091E8008B770BC0809169
:104650009F02882349F08091E80080FFF8CF809185
:10466000E8008E778093E80008952091E40030916F
:10467000E50095E64091EC00842F817040FF23C057
:104680008091E80080FD1DC080919F02882399F0F1
:10469000853099F08091EB0085FD11C04091E400D8
:1046A0005091E5002417350729F3915011F09A0134
:1046B000E1CF84E0089582E0089583E0089581E0E9
:1046C000089580E008954091E80042FFDDCF08950D
:1046D0000E94D6230E94DE23E0EEF0E0808181601C
:1046E0008083E8EDF0E080818F77808319BCA7EDAF
:1046F000B0E08C918E7F8C9380818F7E808310922E
:104700009E0208950F931F93CF93DF930E94D623A9
:104710000E94DE23C8EDD0E088818F77888388816E
:104720008068888388818F7D888319BC10929F025E
:1047300010929B0210929D0210929C0200EE10E0DB
:10474000F80180818B7F808388818160888342E04B
:1047500060E080E00E94E122E1EEF0E080818E7F67
:104760008083E2EEF0E080818160808380818860D8
:104770008083F80180818E7F808388818061888337
:10478000DF91CF911F910F910895E8EDF0E08081C6
:104790008F7E8083E7EDF0E080818160808384E01C
:1047A00082BF81E080939E020C948223E8EDF0E0CA
:1047B00080818E7F80831092E20008951092DA004B
:1047C0001092E10008951F920F920FB60F921124DC
:1047D0002F933F934F935F936F937F938F939F9309
:1047E000AF93BF93EF93FF938091E10082FF0BC0E3
:1047F0008091E20082FF07C08091E1008B7F80936F
:10480000E1000E9459268091DA0080FF1FC080914C
:10481000D80080FF1BC08091DA008E7F8093DA0081
:104820008091D90080FF0DC080E189BD82E189BD02
:1048300009B400FEFDCF81E080939F020E943620E4
:1048400005C019BC10929F020E9444208091E10093
:1048500080FF19C08091E20080FF15C08091E200C6
:104860008E7F8093E2008091E20080618093E2007D
:104870008091D80080628093D80019BC85E0809335
:104880009F020E9448208091E10084FF30C0809107
:10489000E20084FF2CC080E189BD82E189BD09B4BA
:1048A00000FEFDCF8091D8008F7D8093D80080914D
:1048B000E1008F7E8093E1008091E2008F7E809303
:1048C000E2008091E20081608093E20080919B028F
:1048D000882311F084E007C08091E30087FD02C0C7
:1048E00081E001C083E080939F020E944920809173
:1048F000E10083FF29C08091E20083FF25C0809101
:10490000E100877F8093E10082E080939F02109214
:104910009B028091E1008E7F8093E1008091E20014
:104920008E7F8093E2008091E20080618093E200BC
:1049300042E060E080E00E94E1228091F000886027
:104940008093F0000E944720FF91EF91BF91AF91BB
:104950009F918F917F916F915F914F913F912F9197
:104960000F900FBE0F901F9018951F920F920FB6C9
:104970000F9211242F933F934F935F936F937F93E5
:104980008F939F93AF93BF93CF93DF93EF93FF9357
:10499000C091E900CF708091EC00D82FD17080FDDC
:1049A000D0E81092E9008091F000877F8093F000BA
:1049B00078940E94F9241092E9008091F0008860B8
:1049C0008093F000CD2BCF70C093E900FF91EF9161
:1049D000DF91CF91BF91AF919F918F917F916F9117
:1049E0005F914F913F912F910F900FBE0F901F90AD
:1049F00018951F93CF93DF93CDB7DEB7AA970FB665
:104A0000F894DEBF0FBECDBFE0EAF2E08091F10086
:104A1000819322E0E83AF207C9F70E94552080917D
:104A2000E80083FF2EC18091A0029091A102492F3E
:104A300050E04A30510508F024C1FA01EC58FF4F0C
:104A40000C948926803821F0823809F01AC108C0F8
:104A500080919C0290919D02992389F082600FC001
:104A60008091A4028F70873008F00BC18093E90019
:104A70008091EB0085FB882780F91092E9009091E6
:104A8000E800977F9093E8008093F1001092F10086
:104A9000D1C0282F2D7F09F0F4C0882319F082306F
:104AA00061F0EFC08091A202813009F0EAC093303A
:104AB00009F080E080939D022EC08091A2028111B6
:104AC0002AC08091A4028F702FEF280F263008F0A3
:104AD000D8C08093E9002091EB0020FF1CC09330E8
:104AE00021F48091EB00806214C09091EB00906102
:104AF0009093EB0021E030E0A90102C0440F551F64
:104B00008A95E2F74093EA001092EA008091EB0068
:104B100088608093EB001092E9008091E800877F25
:104B20008093E8000E941623ACC08111AAC01091A6
:104B3000A2021F778091E3008078812B8093E300AD
:104B40008091E800877F8093E8000E94162380917F
:104B5000E80080FFFCCF8091E30080688093E30051
:104B6000111102C082E001C083E080939F0289C0DE
:104B70008058823008F085C08091A2029091A302F3
:104B80008C3D53E0950779F583E08A838AE2898337
:104B90004FB7F894DE01139620E03EE051E2E32F98
:104BA000F0E050935700E49120FF03C0E295EF70CE
:104BB0003F5FEF708E2F90E0EA3010F0C79601C093
:104BC000C0968D939D932F5F243149F74FBF8091FD
:104BD000E800877F8093E8006AE270E0CE010196EA
:104BE0000E94222216C06091A4027091A502AE011B
:104BF0004F5F5F4F0E945121BC01892B09F441C0D6
:104C00009091E800977F9093E80089819A810E94B3
:104C100080228091E8008B778093E80032C0803852
:104C200081F58091E800877F8093E80080919B0266
:104C30008093F1008091E8008E7772CF811121C0BE
:104C40008091A2029091A30299270297D4F48091B7
:104C5000E800877F8093E8008091A20280939B0206
:104C60000E94162380919B02811106C08091E3006F
:104C700087FD02C081E001C084E080939F020E9412
:104C80004B208091E80083FF0AC08091E800877F75
:104C90008093E8008091EB0080628093EB00AA96FD
:104CA0000FB6F894DEBF0FBECDBFDF91CF911F913D
:104CB00008950895CF9380919F028823A1F0C09119
:104CC000E900CF709091EC00892F817090FD80E811
:104CD000C82B1092E9008091E80083FD0E94F9241E
:104CE000CF70C093E900CF91089597FB072E16F47B
:104CF000009407D077FD09D00E948F2607FC05D0CD
:104D00003EF4909581959F4F0895709561957F4FE2
:104D10000895EE0FFF1F0590F491E02D0994AA1B52
:104D2000BB1B51E107C0AA1FBB1FA617B70710F096
:104D3000A61BB70B881F991F5A95A9F780959095C8
:104D4000BC01CD010895F999FECF92BD81BDF89ABD
:104D5000992780B50895A8E1B0E042E050E00C94B6
:104D6000D726262FF999FECF92BD81BDF89A0197DB
:104D700000B4021639F01FBA20BD0FB6F894FA9AA3
:104D8000F99A0FBE08950396272F0E94B2260E941B
:104D9000B126252F0E94B226242F0C94B22601960C
:104DA000272F0E94B2260C94B126DC01CB01FC0116
:104DB000F999FECF06C0F2BDE1BDF89A319600B474
:0E4DC0000D9241505040B8F70895F894FFCF7F
:104DCE0025022808641E140A321E781FEF1FC41F06
:104DDE00C01FAE1F01E200E900EA00B500B600B741
:104DEE0000CD008301CC008A01920194012102239F
:104DFE000224022502260227022A02B300B4006F03
:104E0E00007000818283F7F6F5F4F1F06766369450
:104E1E009697343530959392919031E200E900EAFD
:104E2E0000B500B600B700CD008301CC008A019218
:104E3E000194012102230224022502260227022ABE
:0C4E4E0002B300B4006F0070008182838A
:00000001FF
